{"contracts/LinkedIn.sol":{"LinkedIn":{"abi":[{"inputs":[],"stateMutability":"nonpayable","type":"constructor"},{"anonymous":false,"inputs":[{"indexed":false,"internalType":"address","name":"sender","type":"address"},{"indexed":false,"internalType":"address","name":"receiver","type":"address"}],"name":"RequestAccepted","type":"event"},{"anonymous":false,"inputs":[{"indexed":false,"internalType":"address","name":"sender","type":"address"},{"indexed":false,"internalType":"address","name":"receiver","type":"address"}],"name":"RequestSent","type":"event"},{"inputs":[{"internalType":"address","name":"_sender","type":"address"}],"name":"acceptRequest","outputs":[],"stateMutability":"nonpayable","type":"function"},{"inputs":[{"internalType":"address","name":"","type":"address"}],"name":"allUsers","outputs":[{"internalType":"string","name":"userCID","type":"string"},{"internalType":"string","name":"userName","type":"string"},{"internalType":"address","name":"userID","type":"address"},{"internalType":"string","name":"profession","type":"string"},{"internalType":"uint256","name":"userNum","type":"uint256"},{"internalType":"string","name":"country","type":"string"}],"stateMutability":"view","type":"function"},{"inputs":[{"internalType":"address","name":"","type":"address"},{"internalType":"uint256","name":"","type":"uint256"}],"name":"approved_connected_users","outputs":[{"internalType":"string","name":"userCID","type":"string"},{"internalType":"string","name":"userName","type":"string"},{"internalType":"address","name":"userID","type":"address"},{"internalType":"string","name":"profession","type":"string"},{"internalType":"uint256","name":"userNum","type":"uint256"},{"internalType":"string","name":"country","type":"string"}],"stateMutability":"view","type":"function"},{"inputs":[{"internalType":"address","name":"","type":"address"},{"internalType":"uint256","name":"","type":"uint256"}],"name":"connections","outputs":[{"internalType":"address","name":"sender","type":"address"},{"internalType":"address","name":"receiver","type":"address"},{"internalType":"bool","name":"connected","type":"bool"}],"stateMutability":"view","type":"function"},{"inputs":[{"internalType":"string","name":"_userCID","type":"string"},{"internalType":"string","name":"_userName","type":"string"},{"internalType":"string","name":"_profession","type":"string"},{"internalType":"string","name":"_country","type":"string"}],"name":"createUser","outputs":[],"stateMutability":"nonpayable","type":"function"},{"inputs":[],"name":"entryNumber","outputs":[{"internalType":"uint256","name":"_value","type":"uint256"}],"stateMutability":"view","type":"function"},{"inputs":[],"name":"getAllUsers","outputs":[{"internalType":"string[]","name":"","type":"string[]"}],"stateMutability":"view","type":"function"},{"inputs":[{"internalType":"address","name":"_userID","type":"address"}],"name":"getConnectedUsers","outputs":[{"components":[{"internalType":"string","name":"userCID","type":"string"},{"internalType":"string","name":"userName","type":"string"},{"internalType":"address","name":"userID","type":"address"},{"internalType":"string","name":"profession","type":"string"},{"internalType":"uint256","name":"userNum","type":"uint256"},{"internalType":"string","name":"country","type":"string"}],"internalType":"struct LinkedIn.userData[]","name":"","type":"tuple[]"}],"stateMutability":"view","type":"function"},{"inputs":[{"internalType":"address","name":"_userID","type":"address"}],"name":"getPendingRequests","outputs":[{"components":[{"internalType":"address","name":"sender","type":"address"},{"internalType":"address","name":"receiver","type":"address"},{"internalType":"bool","name":"connected","type":"bool"}],"internalType":"struct LinkedIn.userConnections[]","name":"","type":"tuple[]"}],"stateMutability":"view","type":"function"},{"inputs":[{"internalType":"address","name":"_userID","type":"address"}],"name":"getProfilePicture","outputs":[{"internalType":"string","name":"","type":"string"}],"stateMutability":"view","type":"function"},{"inputs":[],"name":"get_Dp_Of_All_Users","outputs":[{"internalType":"string[]","name":"","type":"string[]"}],"stateMutability":"view","type":"function"},{"inputs":[{"internalType":"address","name":"","type":"address"},{"internalType":"uint256","name":"","type":"uint256"}],"name":"pending_requests","outputs":[{"internalType":"address","name":"sender","type":"address"},{"internalType":"address","name":"receiver","type":"address"},{"internalType":"bool","name":"connected","type":"bool"}],"stateMutability":"view","type":"function"},{"inputs":[{"internalType":"address","name":"_receiver","type":"address"}],"name":"sendRequest","outputs":[],"stateMutability":"nonpayable","type":"function"},{"inputs":[{"internalType":"string","name":"_newPicCid","type":"string"}],"name":"uploadProfilePicture","outputs":[],"stateMutability":"nonpayable","type":"function"},{"inputs":[{"internalType":"uint256","name":"","type":"uint256"}],"name":"userArray","outputs":[{"internalType":"string","name":"","type":"string"}],"stateMutability":"view","type":"function"},{"inputs":[{"internalType":"address","name":"_userID","type":"address"}],"name":"userDashBoard","outputs":[{"components":[{"internalType":"string","name":"userCID","type":"string"},{"internalType":"string","name":"userName","type":"string"},{"internalType":"address","name":"userID","type":"address"},{"internalType":"string","name":"profession","type":"string"},{"internalType":"uint256","name":"userNum","type":"uint256"},{"internalType":"string","name":"country","type":"string"}],"internalType":"struct LinkedIn.userData","name":"","type":"tuple"}],"stateMutability":"view","type":"function"},{"inputs":[{"internalType":"uint256","name":"","type":"uint256"}],"name":"userDpArray","outputs":[{"internalType":"string","name":"","type":"string"}],"stateMutability":"view","type":"function"},{"inputs":[{"internalType":"address","name":"","type":"address"}],"name":"userProfilePicture","outputs":[{"internalType":"string","name":"pictureCID","type":"string"}],"stateMutability":"view","type":"function"}],"evm":{"bytecode":{"linkReferences":{},"object":"608060405234801561001057600080fd5b50600180546001600160a01b03191633179055612025806100326000396000f3fe608060405234801561001057600080fd5b50600436106101165760003560e01c806390b0a4ca116100a2578063c672a1aa11610071578063c672a1aa1461025a578063cc2b89641461026f578063e2842d791461028f578063edbece3714610297578063f05bfa7b146102aa57610116565b806390b0a4ca14610201578063b173c54114610214578063b4b3307b14610227578063bc349e731461023a57610116565b80636a146666116100e95780636a146666146101915780636f51d8cf146101a65780636f7fcddb146101b95780637a65b551146101cc57806385e1b15b146101ee57610116565b806329583a9e1461011b5780632b8cc34614610144578063368ca8801461015957806341209af11461017e575b600080fd5b61012e610129366004611a8c565b6102ca565b60405161013b9190611dfb565b60405180910390f35b610157610152366004611a8c565b610368565b005b61016c610167366004611aad565b610893565b60405161013b96959493929190611e0e565b61012e61018c366004611bb9565b610b1b565b610199610bc7565b60405161013b9190611f6e565b61012e6101b4366004611a8c565b610bcd565b6101576101c7366004611b11565b610c7a565b6101df6101da366004611aad565b610dbe565b60405161013b93929190611cbd565b6101576101fc366004611a8c565b610e11565b6101df61020f366004611aad565b611017565b610157610222366004611ad6565b611033565b61012e610235366004611bb9565b6110b0565b61024d610248366004611a8c565b6110c0565b60405161013b9190611f5b565b61026261135a565b60405161013b9190611ce1565b61028261027d366004611a8c565b611433565b60405161013b9190611da8565b610262611711565b61016c6102a5366004611a8c565b6117e1565b6102bd6102b8366004611a8c565b6117fc565b60405161013b9190611d41565b6008602052600090815260409020805481906102e590611f77565b80601f016020809104026020016040519081016040528092919081815260200182805461031190611f77565b801561035e5780601f106103335761010080835404028352916020019161035e565b820191906000526020600020905b81548152906001019060200180831161034157829003601f168201915b5050505050905081565b6000806000805b6001600160a01b038516600090815260056020526040902054811015610472576001600160a01b03851660009081526005602052604090208054339190839081106103ca57634e487b7160e01b600052603260045260246000fd5b60009182526020909120600160029092020101546001600160a01b03161415610460576001600160a01b038516600090815260056020526040902080546001955091925082918290811061042e57634e487b7160e01b600052603260045260246000fd5b60009182526020909120600160029092020181015460ff600160a01b909104161515141561045b57600192505b610472565b8061046a81611fb2565b91505061036f565b5060018315151461049e5760405162461bcd60e51b815260040161049590611ef5565b60405180910390fd5b81156104bc5760405162461bcd60e51b815260040161049590611e7d565b33600081815260056020818152604080842081516060810183526001600160a01b038b8116808352828601988952600183860181815285548083018755958a52878a209451600290960290940180549584166001600160a01b03199687161781559951998101805494511515600160a01b0260ff60a01b199b90941694909516939093179890981617909155948452919052902080548390811061057057634e487b7160e01b600052603260045260246000fd5b906000526020600020906002020160010160146101000a81548160ff02191690831515021790555060005b3360009081526007602052604090205481101561067f5733600090815260076020526040902080546001600160a01b0387169190839081106105ed57634e487b7160e01b600052603260045260246000fd5b60009182526020909120600290910201546001600160a01b0316141561066d573360009081526007602052604090208054600191908390811061064057634e487b7160e01b600052603260045260246000fd5b906000526020600020906002020160010160146101000a81548160ff02191690831515021790555061067f565b8061067781611fb2565b91505061059b565b503360009081526006602081815260408084206001600160a01b0389168552600483529084208154600181018355918552919093208154919390920290910190819083906106cc90611f77565b6106d79291906118a1565b5060018201816001019080546106ec90611f77565b6106f79291906118a1565b5060028281015490820180546001600160a01b0319166001600160a01b03909216919091179055600380830180549183019161073290611f77565b61073d9291906118a1565b5060048201548160040155600582018160050190805461075c90611f77565b6107679291906118a1565b5050506001600160a01b0384166000908152600660208181526040808420338552600483529084208154600181018355918552919093208154919390920290910190819083906107b690611f77565b6107c19291906118a1565b5060018201816001019080546107d690611f77565b6107e19291906118a1565b5060028281015490820180546001600160a01b0319166001600160a01b03909216919091179055600380830180549183019161081c90611f77565b6108279291906118a1565b5060048201548160040155600582018160050190805461084690611f77565b6108519291906118a1565b5050507f5e467e966ef1f3971f88e8cdbfaa4e6af166f9454cf57a51a4a7f9abaaccbb5d8433604051610885929190611ca3565b60405180910390a150505050565b600660205281600052604060002081815481106108af57600080fd5b9060005260206000209060060201600091509150508060000180546108d390611f77565b80601f01602080910402602001604051908101604052809291908181526020018280546108ff90611f77565b801561094c5780601f106109215761010080835404028352916020019161094c565b820191906000526020600020905b81548152906001019060200180831161092f57829003601f168201915b50505050509080600101805461096190611f77565b80601f016020809104026020016040519081016040528092919081815260200182805461098d90611f77565b80156109da5780601f106109af576101008083540402835291602001916109da565b820191906000526020600020905b8154815290600101906020018083116109bd57829003601f168201915b505050600284015460038501805494956001600160a01b03909216949193509150610a0490611f77565b80601f0160208091040260200160405190810160405280929190818152602001828054610a3090611f77565b8015610a7d5780601f10610a5257610100808354040283529160200191610a7d565b820191906000526020600020905b815481529060010190602001808311610a6057829003601f168201915b505050505090806004015490806005018054610a9890611f77565b80601f0160208091040260200160405190810160405280929190818152602001828054610ac490611f77565b8015610b115780601f10610ae657610100808354040283529160200191610b11565b820191906000526020600020905b815481529060010190602001808311610af457829003601f168201915b5050505050905086565b60028181548110610b2b57600080fd5b906000526020600020016000915090508054610b4690611f77565b80601f0160208091040260200160405190810160405280929190818152602001828054610b7290611f77565b8015610bbf5780601f10610b9457610100808354040283529160200191610bbf565b820191906000526020600020905b815481529060010190602001808311610ba257829003601f168201915b505050505081565b60005481565b6001600160a01b0381166000908152600860205260409020805460609190610bf490611f77565b80601f0160208091040260200160405190810160405280929190818152602001828054610c2090611f77565b8015610c6d5780601f10610c4257610100808354040283529160200191610c6d565b820191906000526020600020905b815481529060010190602001808311610c5057829003601f168201915b505050505090505b919050565b610c846000611894565b60006040518060c00160405280868152602001858152602001336001600160a01b03168152602001848152602001610cbc600061189d565b81526020908101849052600280546001810182556000919091528751929350610d0c927f405787fa12a823e0f2b7631cc41b3ba8828b3321ca811111fa75cd3aa3bb5ace9091019188019061192c565b50336000908152600460209081526040909120825180518493610d3392849291019061192c565b506020828101518051610d4c926001850192019061192c565b5060408201516002820180546001600160a01b0319166001600160a01b0390921691909117905560608201518051610d8e91600384019160209091019061192c565b506080820151600482015560a08201518051610db491600584019160209091019061192c565b5050505050505050565b60056020528160005260406000208181548110610dda57600080fd5b6000918252602090912060029091020180546001909101546001600160a01b0391821693509081169150600160a01b900460ff1683565b336001600160a01b0382161415610e3a5760405162461bcd60e51b815260040161049590611eb2565b6000805b33600090815260056020526040902054811015610ece5733600090815260056020526040902080546001600160a01b038516919083908110610e9057634e487b7160e01b600052603260045260246000fd5b60009182526020909120600160029092020101546001600160a01b03161415610ebc5760019150610ece565b80610ec681611fb2565b915050610e3e565b508015610eed5760405162461bcd60e51b815260040161049590611f2c565b3360008181526005602090815260408083208151606080820184528682526001600160a01b03898116838701818152848701898152865460018181018955978b52898b209651600291820290970180549786166001600160a01b03199889161781559251928801805492511515600160a01b90810260ff60a01b19958816948a16949094178516939093179055838b5260078a52888b2089519687018a528c8752868b01948552868a018c81528154808b018355918d529a909b2095519a0290940180549984169986169990991789559051979094018054965115159092029616949091169390931716929092179055517f8e80944630a2faa57965ab9ebd299ad0b033ff10bf238eefa5531254f86a88e59161100b918590611ca3565b60405180910390a15050565b60076020528160005260406000208181548110610dda57600080fd5b604080516020808201835283825233600090815260088252929092208151805192939192611064928492019061192c565b50506003805460018101825560009190915282516110ac92507fc2575a0e9e593c00f959f8c92f12db2869c3395a3b0502d05e2516446f71f85b90910190602084019061192c565b5050565b60038181548110610b2b57600080fd5b6110c86119a0565b6001600160a01b03821660009081526004602052604090819020815160c081019092528054829082906110fa90611f77565b80601f016020809104026020016040519081016040528092919081815260200182805461112690611f77565b80156111735780601f1061114857610100808354040283529160200191611173565b820191906000526020600020905b81548152906001019060200180831161115657829003601f168201915b5050505050815260200160018201805461118c90611f77565b80601f01602080910402602001604051908101604052809291908181526020018280546111b890611f77565b80156112055780601f106111da57610100808354040283529160200191611205565b820191906000526020600020905b8154815290600101906020018083116111e857829003601f168201915b505050918352505060028201546001600160a01b0316602082015260038201805460409092019161123590611f77565b80601f016020809104026020016040519081016040528092919081815260200182805461126190611f77565b80156112ae5780601f10611283576101008083540402835291602001916112ae565b820191906000526020600020905b81548152906001019060200180831161129157829003601f168201915b50505050508152602001600482015481526020016005820180546112d190611f77565b80601f01602080910402602001604051908101604052809291908181526020018280546112fd90611f77565b801561134a5780601f1061131f5761010080835404028352916020019161134a565b820191906000526020600020905b81548152906001019060200180831161132d57829003601f168201915b5050505050815250509050919050565b60606003805480602002602001604051908101604052809291908181526020016000905b8282101561142a57838290600052602060002001805461139d90611f77565b80601f01602080910402602001604051908101604052809291908181526020018280546113c990611f77565b80156114165780601f106113eb57610100808354040283529160200191611416565b820191906000526020600020905b8154815290600101906020018083116113f957829003601f168201915b50505050508152602001906001019061137e565b50505050905090565b6001600160a01b0381166000908152600660209081526040808320805482518185028101850190935280835260609492939192909184015b8282101561170657838290600052602060002090600602016040518060c001604052908160008201805461149e90611f77565b80601f01602080910402602001604051908101604052809291908181526020018280546114ca90611f77565b80156115175780601f106114ec57610100808354040283529160200191611517565b820191906000526020600020905b8154815290600101906020018083116114fa57829003601f168201915b5050505050815260200160018201805461153090611f77565b80601f016020809104026020016040519081016040528092919081815260200182805461155c90611f77565b80156115a95780601f1061157e576101008083540402835291602001916115a9565b820191906000526020600020905b81548152906001019060200180831161158c57829003601f168201915b505050918352505060028201546001600160a01b031660208201526003820180546040909201916115d990611f77565b80601f016020809104026020016040519081016040528092919081815260200182805461160590611f77565b80156116525780601f1061162757610100808354040283529160200191611652565b820191906000526020600020905b81548152906001019060200180831161163557829003601f168201915b505050505081526020016004820154815260200160058201805461167590611f77565b80601f01602080910402602001604051908101604052809291908181526020018280546116a190611f77565b80156116ee5780601f106116c3576101008083540402835291602001916116ee565b820191906000526020600020905b8154815290600101906020018083116116d157829003601f168201915b5050505050815250508152602001906001019061146b565b505050509050919050565b60606002805480602002602001604051908101604052809291908181526020016000905b8282101561142a57838290600052602060002001805461175490611f77565b80601f016020809104026020016040519081016040528092919081815260200182805461178090611f77565b80156117cd5780601f106117a2576101008083540402835291602001916117cd565b820191906000526020600020905b8154815290600101906020018083116117b057829003601f168201915b505050505081526020019060010190611735565b6004602052600090815260409020805481906108d390611f77565b6001600160a01b0381166000908152600760209081526040808320805482518185028101850190935280835260609492939192909184015b82821015611706576000848152602090819020604080516060810182526002860290920180546001600160a01b03908116845260019182015490811684860152600160a01b900460ff161515918301919091529083529092019101611834565b80546001019055565b5490565b8280546118ad90611f77565b90600052602060002090601f0160209004810192826118cf576000855561191c565b82601f106118e0578054855561191c565b8280016001018555821561191c57600052602060002091601f016020900482015b8281111561191c578254825591600101919060010190611901565b506119289291506119df565b5090565b82805461193890611f77565b90600052602060002090601f01602090048101928261195a576000855561191c565b82601f1061197357805160ff191683800117855561191c565b8280016001018555821561191c579182015b8281111561191c578251825591602001919060010190611985565b6040518060c00160405280606081526020016060815260200160006001600160a01b031681526020016060815260200160008152602001606081525090565b5b8082111561192857600081556001016119e0565b80356001600160a01b0381168114610c7557600080fd5b600082601f830112611a1b578081fd5b813567ffffffffffffffff80821115611a3657611a36611fd9565b604051601f8301601f191681016020018281118282101715611a5a57611a5a611fd9565b604052828152848301602001861015611a71578384fd5b82602086016020830137918201602001929092529392505050565b600060208284031215611a9d578081fd5b611aa6826119f4565b9392505050565b60008060408385031215611abf578081fd5b611ac8836119f4565b946020939093013593505050565b600060208284031215611ae7578081fd5b813567ffffffffffffffff811115611afd578182fd5b611b0984828501611a0b565b949350505050565b60008060008060808587031215611b26578182fd5b843567ffffffffffffffff80821115611b3d578384fd5b611b4988838901611a0b565b95506020870135915080821115611b5e578384fd5b611b6a88838901611a0b565b94506040870135915080821115611b7f578384fd5b611b8b88838901611a0b565b93506060870135915080821115611ba0578283fd5b50611bad87828801611a0b565b91505092959194509250565b600060208284031215611bca578081fd5b5035919050565b60008151808452815b81811015611bf657602081850181015186830182015201611bda565b81811115611c075782602083870101525b50601f01601f19169290920160200192915050565b6000815160c08452611c3160c0850182611bd1565b905060208301518482036020860152611c4a8282611bd1565b91505060018060a01b03604084015116604085015260608301518482036060860152611c768282611bd1565b9150506080830151608085015260a083015184820360a0860152611c9a8282611bd1565b95945050505050565b6001600160a01b0392831681529116602082015260400190565b6001600160a01b039384168152919092166020820152901515604082015260600190565b6000602080830181845280855180835260408601915060408482028701019250838701855b82811015611d3457603f19888603018452611d22858351611bd1565b94509285019290850190600101611d06565b5092979650505050505050565b602080825282518282018190526000919060409081850190868401855b82811015611d9b57815180516001600160a01b03908116865287820151168786015285015115158585015260609093019290850190600101611d5e565b5091979650505050505050565b6000602080830181845280855180835260408601915060408482028701019250838701855b82811015611d3457603f19888603018452611de9858351611c1c565b94509285019290850190600101611dcd565b600060208252611aa66020830184611bd1565b600060c08252611e2160c0830189611bd1565b8281036020840152611e338189611bd1565b6001600160a01b038816604085015283810360608501529050611e568187611bd1565b905084608084015282810360a0840152611e708185611bd1565b9998505050505050505050565b6020808252818101527f416c726561647920436f6e6e656374656420746f207468697320757365722021604082015260600190565b60208082526023908201527f596f752063616e6e6f742073656e64207265717565737420746f20796f75727360408201526232b63360e91b606082015260800190565b6020808252601e908201527f436f6e6e656374696f6e2072657175657374206e6f7420666f756e6420210000604082015260600190565b6020808252601590820152745265717565737420616c72656164792073656e742160581b604082015260600190565b600060208252611aa66020830184611c1c565b90815260200190565b600281046001821680611f8b57607f821691505b60208210811415611fac57634e487b7160e01b600052602260045260246000fd5b50919050565b6000600019821415611fd257634e487b7160e01b81526011600452602481fd5b5060010190565b634e487b7160e01b600052604160045260246000fdfea26469706673582212201e6086a875110814915362646cc8b6b1c43c3c4988439efd3b5e14b1b4b7316b64736f6c63430008000033","opcodes":"PUSH1 0x80 PUSH1 0x40 MSTORE CALLVALUE DUP1 ISZERO PUSH2 0x10 JUMPI PUSH1 0x0 DUP1 REVERT JUMPDEST POP PUSH1 0x1 DUP1 SLOAD PUSH1 0x1 PUSH1 0x1 PUSH1 0xA0 SHL SUB NOT AND CALLER OR SWAP1 SSTORE PUSH2 0x2025 DUP1 PUSH2 0x32 PUSH1 0x0 CODECOPY PUSH1 0x0 RETURN INVALID PUSH1 0x80 PUSH1 0x40 MSTORE CALLVALUE DUP1 ISZERO PUSH2 0x10 JUMPI PUSH1 0x0 DUP1 REVERT JUMPDEST POP PUSH1 0x4 CALLDATASIZE LT PUSH2 0x116 JUMPI PUSH1 0x0 CALLDATALOAD PUSH1 0xE0 SHR DUP1 PUSH4 0x90B0A4CA GT PUSH2 0xA2 JUMPI DUP1 PUSH4 0xC672A1AA GT PUSH2 0x71 JUMPI DUP1 PUSH4 0xC672A1AA EQ PUSH2 0x25A JUMPI DUP1 PUSH4 0xCC2B8964 EQ PUSH2 0x26F JUMPI DUP1 PUSH4 0xE2842D79 EQ PUSH2 0x28F JUMPI DUP1 PUSH4 0xEDBECE37 EQ PUSH2 0x297 JUMPI DUP1 PUSH4 0xF05BFA7B EQ PUSH2 0x2AA JUMPI PUSH2 0x116 JUMP JUMPDEST DUP1 PUSH4 0x90B0A4CA EQ PUSH2 0x201 JUMPI DUP1 PUSH4 0xB173C541 EQ PUSH2 0x214 JUMPI DUP1 PUSH4 0xB4B3307B EQ PUSH2 0x227 JUMPI DUP1 PUSH4 0xBC349E73 EQ PUSH2 0x23A JUMPI PUSH2 0x116 JUMP JUMPDEST DUP1 PUSH4 0x6A146666 GT PUSH2 0xE9 JUMPI DUP1 PUSH4 0x6A146666 EQ PUSH2 0x191 JUMPI DUP1 PUSH4 0x6F51D8CF EQ PUSH2 0x1A6 JUMPI DUP1 PUSH4 0x6F7FCDDB EQ PUSH2 0x1B9 JUMPI DUP1 PUSH4 0x7A65B551 EQ PUSH2 0x1CC JUMPI DUP1 PUSH4 0x85E1B15B EQ PUSH2 0x1EE JUMPI PUSH2 0x116 JUMP JUMPDEST DUP1 PUSH4 0x29583A9E EQ PUSH2 0x11B JUMPI DUP1 PUSH4 0x2B8CC346 EQ PUSH2 0x144 JUMPI DUP1 PUSH4 0x368CA880 EQ PUSH2 0x159 JUMPI DUP1 PUSH4 0x41209AF1 EQ PUSH2 0x17E JUMPI JUMPDEST PUSH1 0x0 DUP1 REVERT JUMPDEST PUSH2 0x12E PUSH2 0x129 CALLDATASIZE PUSH1 0x4 PUSH2 0x1A8C JUMP JUMPDEST PUSH2 0x2CA JUMP JUMPDEST PUSH1 0x40 MLOAD PUSH2 0x13B SWAP2 SWAP1 PUSH2 0x1DFB JUMP JUMPDEST PUSH1 0x40 MLOAD DUP1 SWAP2 SUB SWAP1 RETURN JUMPDEST PUSH2 0x157 PUSH2 0x152 CALLDATASIZE PUSH1 0x4 PUSH2 0x1A8C JUMP JUMPDEST PUSH2 0x368 JUMP JUMPDEST STOP JUMPDEST PUSH2 0x16C PUSH2 0x167 CALLDATASIZE PUSH1 0x4 PUSH2 0x1AAD JUMP JUMPDEST PUSH2 0x893 JUMP JUMPDEST PUSH1 0x40 MLOAD PUSH2 0x13B SWAP7 SWAP6 SWAP5 SWAP4 SWAP3 SWAP2 SWAP1 PUSH2 0x1E0E JUMP JUMPDEST PUSH2 0x12E PUSH2 0x18C CALLDATASIZE PUSH1 0x4 PUSH2 0x1BB9 JUMP JUMPDEST PUSH2 0xB1B JUMP JUMPDEST PUSH2 0x199 PUSH2 0xBC7 JUMP JUMPDEST PUSH1 0x40 MLOAD PUSH2 0x13B SWAP2 SWAP1 PUSH2 0x1F6E JUMP JUMPDEST PUSH2 0x12E PUSH2 0x1B4 CALLDATASIZE PUSH1 0x4 PUSH2 0x1A8C JUMP JUMPDEST PUSH2 0xBCD JUMP JUMPDEST PUSH2 0x157 PUSH2 0x1C7 CALLDATASIZE PUSH1 0x4 PUSH2 0x1B11 JUMP JUMPDEST PUSH2 0xC7A JUMP JUMPDEST PUSH2 0x1DF PUSH2 0x1DA CALLDATASIZE PUSH1 0x4 PUSH2 0x1AAD JUMP JUMPDEST PUSH2 0xDBE JUMP JUMPDEST PUSH1 0x40 MLOAD PUSH2 0x13B SWAP4 SWAP3 SWAP2 SWAP1 PUSH2 0x1CBD JUMP JUMPDEST PUSH2 0x157 PUSH2 0x1FC CALLDATASIZE PUSH1 0x4 PUSH2 0x1A8C JUMP JUMPDEST PUSH2 0xE11 JUMP JUMPDEST PUSH2 0x1DF PUSH2 0x20F CALLDATASIZE PUSH1 0x4 PUSH2 0x1AAD JUMP JUMPDEST PUSH2 0x1017 JUMP JUMPDEST PUSH2 0x157 PUSH2 0x222 CALLDATASIZE PUSH1 0x4 PUSH2 0x1AD6 JUMP JUMPDEST PUSH2 0x1033 JUMP JUMPDEST PUSH2 0x12E PUSH2 0x235 CALLDATASIZE PUSH1 0x4 PUSH2 0x1BB9 JUMP JUMPDEST PUSH2 0x10B0 JUMP JUMPDEST PUSH2 0x24D PUSH2 0x248 CALLDATASIZE PUSH1 0x4 PUSH2 0x1A8C JUMP JUMPDEST PUSH2 0x10C0 JUMP JUMPDEST PUSH1 0x40 MLOAD PUSH2 0x13B SWAP2 SWAP1 PUSH2 0x1F5B JUMP JUMPDEST PUSH2 0x262 PUSH2 0x135A JUMP JUMPDEST PUSH1 0x40 MLOAD PUSH2 0x13B SWAP2 SWAP1 PUSH2 0x1CE1 JUMP JUMPDEST PUSH2 0x282 PUSH2 0x27D CALLDATASIZE PUSH1 0x4 PUSH2 0x1A8C JUMP JUMPDEST PUSH2 0x1433 JUMP JUMPDEST PUSH1 0x40 MLOAD PUSH2 0x13B SWAP2 SWAP1 PUSH2 0x1DA8 JUMP JUMPDEST PUSH2 0x262 PUSH2 0x1711 JUMP JUMPDEST PUSH2 0x16C PUSH2 0x2A5 CALLDATASIZE PUSH1 0x4 PUSH2 0x1A8C JUMP JUMPDEST PUSH2 0x17E1 JUMP JUMPDEST PUSH2 0x2BD PUSH2 0x2B8 CALLDATASIZE PUSH1 0x4 PUSH2 0x1A8C JUMP JUMPDEST PUSH2 0x17FC JUMP JUMPDEST PUSH1 0x40 MLOAD PUSH2 0x13B SWAP2 SWAP1 PUSH2 0x1D41 JUMP JUMPDEST PUSH1 0x8 PUSH1 0x20 MSTORE PUSH1 0x0 SWAP1 DUP2 MSTORE PUSH1 0x40 SWAP1 KECCAK256 DUP1 SLOAD DUP2 SWAP1 PUSH2 0x2E5 SWAP1 PUSH2 0x1F77 JUMP JUMPDEST DUP1 PUSH1 0x1F ADD PUSH1 0x20 DUP1 SWAP2 DIV MUL PUSH1 0x20 ADD PUSH1 0x40 MLOAD SWAP1 DUP2 ADD PUSH1 0x40 MSTORE DUP1 SWAP3 SWAP2 SWAP1 DUP2 DUP2 MSTORE PUSH1 0x20 ADD DUP3 DUP1 SLOAD PUSH2 0x311 SWAP1 PUSH2 0x1F77 JUMP JUMPDEST DUP1 ISZERO PUSH2 0x35E JUMPI DUP1 PUSH1 0x1F LT PUSH2 0x333 JUMPI PUSH2 0x100 DUP1 DUP4 SLOAD DIV MUL DUP4 MSTORE SWAP2 PUSH1 0x20 ADD SWAP2 PUSH2 0x35E JUMP JUMPDEST DUP3 ADD SWAP2 SWAP1 PUSH1 0x0 MSTORE PUSH1 0x20 PUSH1 0x0 KECCAK256 SWAP1 JUMPDEST DUP2 SLOAD DUP2 MSTORE SWAP1 PUSH1 0x1 ADD SWAP1 PUSH1 0x20 ADD DUP1 DUP4 GT PUSH2 0x341 JUMPI DUP3 SWAP1 SUB PUSH1 0x1F AND DUP3 ADD SWAP2 JUMPDEST POP POP POP POP POP SWAP1 POP DUP2 JUMP JUMPDEST PUSH1 0x0 DUP1 PUSH1 0x0 DUP1 JUMPDEST PUSH1 0x1 PUSH1 0x1 PUSH1 0xA0 SHL SUB DUP6 AND PUSH1 0x0 SWAP1 DUP2 MSTORE PUSH1 0x5 PUSH1 0x20 MSTORE PUSH1 0x40 SWAP1 KECCAK256 SLOAD DUP2 LT ISZERO PUSH2 0x472 JUMPI PUSH1 0x1 PUSH1 0x1 PUSH1 0xA0 SHL SUB DUP6 AND PUSH1 0x0 SWAP1 DUP2 MSTORE PUSH1 0x5 PUSH1 0x20 MSTORE PUSH1 0x40 SWAP1 KECCAK256 DUP1 SLOAD CALLER SWAP2 SWAP1 DUP4 SWAP1 DUP2 LT PUSH2 0x3CA JUMPI PUSH4 0x4E487B71 PUSH1 0xE0 SHL PUSH1 0x0 MSTORE PUSH1 0x32 PUSH1 0x4 MSTORE PUSH1 0x24 PUSH1 0x0 REVERT JUMPDEST PUSH1 0x0 SWAP2 DUP3 MSTORE PUSH1 0x20 SWAP1 SWAP2 KECCAK256 PUSH1 0x1 PUSH1 0x2 SWAP1 SWAP3 MUL ADD ADD SLOAD PUSH1 0x1 PUSH1 0x1 PUSH1 0xA0 SHL SUB AND EQ ISZERO PUSH2 0x460 JUMPI PUSH1 0x1 PUSH1 0x1 PUSH1 0xA0 SHL SUB DUP6 AND PUSH1 0x0 SWAP1 DUP2 MSTORE PUSH1 0x5 PUSH1 0x20 MSTORE PUSH1 0x40 SWAP1 KECCAK256 DUP1 SLOAD PUSH1 0x1 SWAP6 POP SWAP2 SWAP3 POP DUP3 SWAP2 DUP3 SWAP1 DUP2 LT PUSH2 0x42E JUMPI PUSH4 0x4E487B71 PUSH1 0xE0 SHL PUSH1 0x0 MSTORE PUSH1 0x32 PUSH1 0x4 MSTORE PUSH1 0x24 PUSH1 0x0 REVERT JUMPDEST PUSH1 0x0 SWAP2 DUP3 MSTORE PUSH1 0x20 SWAP1 SWAP2 KECCAK256 PUSH1 0x1 PUSH1 0x2 SWAP1 SWAP3 MUL ADD DUP2 ADD SLOAD PUSH1 0xFF PUSH1 0x1 PUSH1 0xA0 SHL SWAP1 SWAP2 DIV AND ISZERO ISZERO EQ ISZERO PUSH2 0x45B JUMPI PUSH1 0x1 SWAP3 POP JUMPDEST PUSH2 0x472 JUMP JUMPDEST DUP1 PUSH2 0x46A DUP2 PUSH2 0x1FB2 JUMP JUMPDEST SWAP2 POP POP PUSH2 0x36F JUMP JUMPDEST POP PUSH1 0x1 DUP4 ISZERO ISZERO EQ PUSH2 0x49E JUMPI PUSH1 0x40 MLOAD PUSH3 0x461BCD PUSH1 0xE5 SHL DUP2 MSTORE PUSH1 0x4 ADD PUSH2 0x495 SWAP1 PUSH2 0x1EF5 JUMP JUMPDEST PUSH1 0x40 MLOAD DUP1 SWAP2 SUB SWAP1 REVERT JUMPDEST DUP2 ISZERO PUSH2 0x4BC JUMPI PUSH1 0x40 MLOAD PUSH3 0x461BCD PUSH1 0xE5 SHL DUP2 MSTORE PUSH1 0x4 ADD PUSH2 0x495 SWAP1 PUSH2 0x1E7D JUMP JUMPDEST CALLER PUSH1 0x0 DUP2 DUP2 MSTORE PUSH1 0x5 PUSH1 0x20 DUP2 DUP2 MSTORE PUSH1 0x40 DUP1 DUP5 KECCAK256 DUP2 MLOAD PUSH1 0x60 DUP2 ADD DUP4 MSTORE PUSH1 0x1 PUSH1 0x1 PUSH1 0xA0 SHL SUB DUP12 DUP2 AND DUP1 DUP4 MSTORE DUP3 DUP7 ADD SWAP9 DUP10 MSTORE PUSH1 0x1 DUP4 DUP7 ADD DUP2 DUP2 MSTORE DUP6 SLOAD DUP1 DUP4 ADD DUP8 SSTORE SWAP6 DUP11 MSTORE DUP8 DUP11 KECCAK256 SWAP5 MLOAD PUSH1 0x2 SWAP1 SWAP7 MUL SWAP1 SWAP5 ADD DUP1 SLOAD SWAP6 DUP5 AND PUSH1 0x1 PUSH1 0x1 PUSH1 0xA0 SHL SUB NOT SWAP7 DUP8 AND OR DUP2 SSTORE SWAP10 MLOAD SWAP10 DUP2 ADD DUP1 SLOAD SWAP5 MLOAD ISZERO ISZERO PUSH1 0x1 PUSH1 0xA0 SHL MUL PUSH1 0xFF PUSH1 0xA0 SHL NOT SWAP12 SWAP1 SWAP5 AND SWAP5 SWAP1 SWAP6 AND SWAP4 SWAP1 SWAP4 OR SWAP9 SWAP1 SWAP9 AND OR SWAP1 SWAP2 SSTORE SWAP5 DUP5 MSTORE SWAP2 SWAP1 MSTORE SWAP1 KECCAK256 DUP1 SLOAD DUP4 SWAP1 DUP2 LT PUSH2 0x570 JUMPI PUSH4 0x4E487B71 PUSH1 0xE0 SHL PUSH1 0x0 MSTORE PUSH1 0x32 PUSH1 0x4 MSTORE PUSH1 0x24 PUSH1 0x0 REVERT JUMPDEST SWAP1 PUSH1 0x0 MSTORE PUSH1 0x20 PUSH1 0x0 KECCAK256 SWAP1 PUSH1 0x2 MUL ADD PUSH1 0x1 ADD PUSH1 0x14 PUSH2 0x100 EXP DUP2 SLOAD DUP2 PUSH1 0xFF MUL NOT AND SWAP1 DUP4 ISZERO ISZERO MUL OR SWAP1 SSTORE POP PUSH1 0x0 JUMPDEST CALLER PUSH1 0x0 SWAP1 DUP2 MSTORE PUSH1 0x7 PUSH1 0x20 MSTORE PUSH1 0x40 SWAP1 KECCAK256 SLOAD DUP2 LT ISZERO PUSH2 0x67F JUMPI CALLER PUSH1 0x0 SWAP1 DUP2 MSTORE PUSH1 0x7 PUSH1 0x20 MSTORE PUSH1 0x40 SWAP1 KECCAK256 DUP1 SLOAD PUSH1 0x1 PUSH1 0x1 PUSH1 0xA0 SHL SUB DUP8 AND SWAP2 SWAP1 DUP4 SWAP1 DUP2 LT PUSH2 0x5ED JUMPI PUSH4 0x4E487B71 PUSH1 0xE0 SHL PUSH1 0x0 MSTORE PUSH1 0x32 PUSH1 0x4 MSTORE PUSH1 0x24 PUSH1 0x0 REVERT JUMPDEST PUSH1 0x0 SWAP2 DUP3 MSTORE PUSH1 0x20 SWAP1 SWAP2 KECCAK256 PUSH1 0x2 SWAP1 SWAP2 MUL ADD SLOAD PUSH1 0x1 PUSH1 0x1 PUSH1 0xA0 SHL SUB AND EQ ISZERO PUSH2 0x66D JUMPI CALLER PUSH1 0x0 SWAP1 DUP2 MSTORE PUSH1 0x7 PUSH1 0x20 MSTORE PUSH1 0x40 SWAP1 KECCAK256 DUP1 SLOAD PUSH1 0x1 SWAP2 SWAP1 DUP4 SWAP1 DUP2 LT PUSH2 0x640 JUMPI PUSH4 0x4E487B71 PUSH1 0xE0 SHL PUSH1 0x0 MSTORE PUSH1 0x32 PUSH1 0x4 MSTORE PUSH1 0x24 PUSH1 0x0 REVERT JUMPDEST SWAP1 PUSH1 0x0 MSTORE PUSH1 0x20 PUSH1 0x0 KECCAK256 SWAP1 PUSH1 0x2 MUL ADD PUSH1 0x1 ADD PUSH1 0x14 PUSH2 0x100 EXP DUP2 SLOAD DUP2 PUSH1 0xFF MUL NOT AND SWAP1 DUP4 ISZERO ISZERO MUL OR SWAP1 SSTORE POP PUSH2 0x67F JUMP JUMPDEST DUP1 PUSH2 0x677 DUP2 PUSH2 0x1FB2 JUMP JUMPDEST SWAP2 POP POP PUSH2 0x59B JUMP JUMPDEST POP CALLER PUSH1 0x0 SWAP1 DUP2 MSTORE PUSH1 0x6 PUSH1 0x20 DUP2 DUP2 MSTORE PUSH1 0x40 DUP1 DUP5 KECCAK256 PUSH1 0x1 PUSH1 0x1 PUSH1 0xA0 SHL SUB DUP10 AND DUP6 MSTORE PUSH1 0x4 DUP4 MSTORE SWAP1 DUP5 KECCAK256 DUP2 SLOAD PUSH1 0x1 DUP2 ADD DUP4 SSTORE SWAP2 DUP6 MSTORE SWAP2 SWAP1 SWAP4 KECCAK256 DUP2 SLOAD SWAP2 SWAP4 SWAP1 SWAP3 MUL SWAP1 SWAP2 ADD SWAP1 DUP2 SWAP1 DUP4 SWAP1 PUSH2 0x6CC SWAP1 PUSH2 0x1F77 JUMP JUMPDEST PUSH2 0x6D7 SWAP3 SWAP2 SWAP1 PUSH2 0x18A1 JUMP JUMPDEST POP PUSH1 0x1 DUP3 ADD DUP2 PUSH1 0x1 ADD SWAP1 DUP1 SLOAD PUSH2 0x6EC SWAP1 PUSH2 0x1F77 JUMP JUMPDEST PUSH2 0x6F7 SWAP3 SWAP2 SWAP1 PUSH2 0x18A1 JUMP JUMPDEST POP PUSH1 0x2 DUP3 DUP2 ADD SLOAD SWAP1 DUP3 ADD DUP1 SLOAD PUSH1 0x1 PUSH1 0x1 PUSH1 0xA0 SHL SUB NOT AND PUSH1 0x1 PUSH1 0x1 PUSH1 0xA0 SHL SUB SWAP1 SWAP3 AND SWAP2 SWAP1 SWAP2 OR SWAP1 SSTORE PUSH1 0x3 DUP1 DUP4 ADD DUP1 SLOAD SWAP2 DUP4 ADD SWAP2 PUSH2 0x732 SWAP1 PUSH2 0x1F77 JUMP JUMPDEST PUSH2 0x73D SWAP3 SWAP2 SWAP1 PUSH2 0x18A1 JUMP JUMPDEST POP PUSH1 0x4 DUP3 ADD SLOAD DUP2 PUSH1 0x4 ADD SSTORE PUSH1 0x5 DUP3 ADD DUP2 PUSH1 0x5 ADD SWAP1 DUP1 SLOAD PUSH2 0x75C SWAP1 PUSH2 0x1F77 JUMP JUMPDEST PUSH2 0x767 SWAP3 SWAP2 SWAP1 PUSH2 0x18A1 JUMP JUMPDEST POP POP POP PUSH1 0x1 PUSH1 0x1 PUSH1 0xA0 SHL SUB DUP5 AND PUSH1 0x0 SWAP1 DUP2 MSTORE PUSH1 0x6 PUSH1 0x20 DUP2 DUP2 MSTORE PUSH1 0x40 DUP1 DUP5 KECCAK256 CALLER DUP6 MSTORE PUSH1 0x4 DUP4 MSTORE SWAP1 DUP5 KECCAK256 DUP2 SLOAD PUSH1 0x1 DUP2 ADD DUP4 SSTORE SWAP2 DUP6 MSTORE SWAP2 SWAP1 SWAP4 KECCAK256 DUP2 SLOAD SWAP2 SWAP4 SWAP1 SWAP3 MUL SWAP1 SWAP2 ADD SWAP1 DUP2 SWAP1 DUP4 SWAP1 PUSH2 0x7B6 SWAP1 PUSH2 0x1F77 JUMP JUMPDEST PUSH2 0x7C1 SWAP3 SWAP2 SWAP1 PUSH2 0x18A1 JUMP JUMPDEST POP PUSH1 0x1 DUP3 ADD DUP2 PUSH1 0x1 ADD SWAP1 DUP1 SLOAD PUSH2 0x7D6 SWAP1 PUSH2 0x1F77 JUMP JUMPDEST PUSH2 0x7E1 SWAP3 SWAP2 SWAP1 PUSH2 0x18A1 JUMP JUMPDEST POP PUSH1 0x2 DUP3 DUP2 ADD SLOAD SWAP1 DUP3 ADD DUP1 SLOAD PUSH1 0x1 PUSH1 0x1 PUSH1 0xA0 SHL SUB NOT AND PUSH1 0x1 PUSH1 0x1 PUSH1 0xA0 SHL SUB SWAP1 SWAP3 AND SWAP2 SWAP1 SWAP2 OR SWAP1 SSTORE PUSH1 0x3 DUP1 DUP4 ADD DUP1 SLOAD SWAP2 DUP4 ADD SWAP2 PUSH2 0x81C SWAP1 PUSH2 0x1F77 JUMP JUMPDEST PUSH2 0x827 SWAP3 SWAP2 SWAP1 PUSH2 0x18A1 JUMP JUMPDEST POP PUSH1 0x4 DUP3 ADD SLOAD DUP2 PUSH1 0x4 ADD SSTORE PUSH1 0x5 DUP3 ADD DUP2 PUSH1 0x5 ADD SWAP1 DUP1 SLOAD PUSH2 0x846 SWAP1 PUSH2 0x1F77 JUMP JUMPDEST PUSH2 0x851 SWAP3 SWAP2 SWAP1 PUSH2 0x18A1 JUMP JUMPDEST POP POP POP PUSH32 0x5E467E966EF1F3971F88E8CDBFAA4E6AF166F9454CF57A51A4A7F9ABAACCBB5D DUP5 CALLER PUSH1 0x40 MLOAD PUSH2 0x885 SWAP3 SWAP2 SWAP1 PUSH2 0x1CA3 JUMP JUMPDEST PUSH1 0x40 MLOAD DUP1 SWAP2 SUB SWAP1 LOG1 POP POP POP POP JUMP JUMPDEST PUSH1 0x6 PUSH1 0x20 MSTORE DUP2 PUSH1 0x0 MSTORE PUSH1 0x40 PUSH1 0x0 KECCAK256 DUP2 DUP2 SLOAD DUP2 LT PUSH2 0x8AF JUMPI PUSH1 0x0 DUP1 REVERT JUMPDEST SWAP1 PUSH1 0x0 MSTORE PUSH1 0x20 PUSH1 0x0 KECCAK256 SWAP1 PUSH1 0x6 MUL ADD PUSH1 0x0 SWAP2 POP SWAP2 POP POP DUP1 PUSH1 0x0 ADD DUP1 SLOAD PUSH2 0x8D3 SWAP1 PUSH2 0x1F77 JUMP JUMPDEST DUP1 PUSH1 0x1F ADD PUSH1 0x20 DUP1 SWAP2 DIV MUL PUSH1 0x20 ADD PUSH1 0x40 MLOAD SWAP1 DUP2 ADD PUSH1 0x40 MSTORE DUP1 SWAP3 SWAP2 SWAP1 DUP2 DUP2 MSTORE PUSH1 0x20 ADD DUP3 DUP1 SLOAD PUSH2 0x8FF SWAP1 PUSH2 0x1F77 JUMP JUMPDEST DUP1 ISZERO PUSH2 0x94C JUMPI DUP1 PUSH1 0x1F LT PUSH2 0x921 JUMPI PUSH2 0x100 DUP1 DUP4 SLOAD DIV MUL DUP4 MSTORE SWAP2 PUSH1 0x20 ADD SWAP2 PUSH2 0x94C JUMP JUMPDEST DUP3 ADD SWAP2 SWAP1 PUSH1 0x0 MSTORE PUSH1 0x20 PUSH1 0x0 KECCAK256 SWAP1 JUMPDEST DUP2 SLOAD DUP2 MSTORE SWAP1 PUSH1 0x1 ADD SWAP1 PUSH1 0x20 ADD DUP1 DUP4 GT PUSH2 0x92F JUMPI DUP3 SWAP1 SUB PUSH1 0x1F AND DUP3 ADD SWAP2 JUMPDEST POP POP POP POP POP SWAP1 DUP1 PUSH1 0x1 ADD DUP1 SLOAD PUSH2 0x961 SWAP1 PUSH2 0x1F77 JUMP JUMPDEST DUP1 PUSH1 0x1F ADD PUSH1 0x20 DUP1 SWAP2 DIV MUL PUSH1 0x20 ADD PUSH1 0x40 MLOAD SWAP1 DUP2 ADD PUSH1 0x40 MSTORE DUP1 SWAP3 SWAP2 SWAP1 DUP2 DUP2 MSTORE PUSH1 0x20 ADD DUP3 DUP1 SLOAD PUSH2 0x98D SWAP1 PUSH2 0x1F77 JUMP JUMPDEST DUP1 ISZERO PUSH2 0x9DA JUMPI DUP1 PUSH1 0x1F LT PUSH2 0x9AF JUMPI PUSH2 0x100 DUP1 DUP4 SLOAD DIV MUL DUP4 MSTORE SWAP2 PUSH1 0x20 ADD SWAP2 PUSH2 0x9DA JUMP JUMPDEST DUP3 ADD SWAP2 SWAP1 PUSH1 0x0 MSTORE PUSH1 0x20 PUSH1 0x0 KECCAK256 SWAP1 JUMPDEST DUP2 SLOAD DUP2 MSTORE SWAP1 PUSH1 0x1 ADD SWAP1 PUSH1 0x20 ADD DUP1 DUP4 GT PUSH2 0x9BD JUMPI DUP3 SWAP1 SUB PUSH1 0x1F AND DUP3 ADD SWAP2 JUMPDEST POP POP POP PUSH1 0x2 DUP5 ADD SLOAD PUSH1 0x3 DUP6 ADD DUP1 SLOAD SWAP5 SWAP6 PUSH1 0x1 PUSH1 0x1 PUSH1 0xA0 SHL SUB SWAP1 SWAP3 AND SWAP5 SWAP2 SWAP4 POP SWAP2 POP PUSH2 0xA04 SWAP1 PUSH2 0x1F77 JUMP JUMPDEST DUP1 PUSH1 0x1F ADD PUSH1 0x20 DUP1 SWAP2 DIV MUL PUSH1 0x20 ADD PUSH1 0x40 MLOAD SWAP1 DUP2 ADD PUSH1 0x40 MSTORE DUP1 SWAP3 SWAP2 SWAP1 DUP2 DUP2 MSTORE PUSH1 0x20 ADD DUP3 DUP1 SLOAD PUSH2 0xA30 SWAP1 PUSH2 0x1F77 JUMP JUMPDEST DUP1 ISZERO PUSH2 0xA7D JUMPI DUP1 PUSH1 0x1F LT PUSH2 0xA52 JUMPI PUSH2 0x100 DUP1 DUP4 SLOAD DIV MUL DUP4 MSTORE SWAP2 PUSH1 0x20 ADD SWAP2 PUSH2 0xA7D JUMP JUMPDEST DUP3 ADD SWAP2 SWAP1 PUSH1 0x0 MSTORE PUSH1 0x20 PUSH1 0x0 KECCAK256 SWAP1 JUMPDEST DUP2 SLOAD DUP2 MSTORE SWAP1 PUSH1 0x1 ADD SWAP1 PUSH1 0x20 ADD DUP1 DUP4 GT PUSH2 0xA60 JUMPI DUP3 SWAP1 SUB PUSH1 0x1F AND DUP3 ADD SWAP2 JUMPDEST POP POP POP POP POP SWAP1 DUP1 PUSH1 0x4 ADD SLOAD SWAP1 DUP1 PUSH1 0x5 ADD DUP1 SLOAD PUSH2 0xA98 SWAP1 PUSH2 0x1F77 JUMP JUMPDEST DUP1 PUSH1 0x1F ADD PUSH1 0x20 DUP1 SWAP2 DIV MUL PUSH1 0x20 ADD PUSH1 0x40 MLOAD SWAP1 DUP2 ADD PUSH1 0x40 MSTORE DUP1 SWAP3 SWAP2 SWAP1 DUP2 DUP2 MSTORE PUSH1 0x20 ADD DUP3 DUP1 SLOAD PUSH2 0xAC4 SWAP1 PUSH2 0x1F77 JUMP JUMPDEST DUP1 ISZERO PUSH2 0xB11 JUMPI DUP1 PUSH1 0x1F LT PUSH2 0xAE6 JUMPI PUSH2 0x100 DUP1 DUP4 SLOAD DIV MUL DUP4 MSTORE SWAP2 PUSH1 0x20 ADD SWAP2 PUSH2 0xB11 JUMP JUMPDEST DUP3 ADD SWAP2 SWAP1 PUSH1 0x0 MSTORE PUSH1 0x20 PUSH1 0x0 KECCAK256 SWAP1 JUMPDEST DUP2 SLOAD DUP2 MSTORE SWAP1 PUSH1 0x1 ADD SWAP1 PUSH1 0x20 ADD DUP1 DUP4 GT PUSH2 0xAF4 JUMPI DUP3 SWAP1 SUB PUSH1 0x1F AND DUP3 ADD SWAP2 JUMPDEST POP POP POP POP POP SWAP1 POP DUP7 JUMP JUMPDEST PUSH1 0x2 DUP2 DUP2 SLOAD DUP2 LT PUSH2 0xB2B JUMPI PUSH1 0x0 DUP1 REVERT JUMPDEST SWAP1 PUSH1 0x0 MSTORE PUSH1 0x20 PUSH1 0x0 KECCAK256 ADD PUSH1 0x0 SWAP2 POP SWAP1 POP DUP1 SLOAD PUSH2 0xB46 SWAP1 PUSH2 0x1F77 JUMP JUMPDEST DUP1 PUSH1 0x1F ADD PUSH1 0x20 DUP1 SWAP2 DIV MUL PUSH1 0x20 ADD PUSH1 0x40 MLOAD SWAP1 DUP2 ADD PUSH1 0x40 MSTORE DUP1 SWAP3 SWAP2 SWAP1 DUP2 DUP2 MSTORE PUSH1 0x20 ADD DUP3 DUP1 SLOAD PUSH2 0xB72 SWAP1 PUSH2 0x1F77 JUMP JUMPDEST DUP1 ISZERO PUSH2 0xBBF JUMPI DUP1 PUSH1 0x1F LT PUSH2 0xB94 JUMPI PUSH2 0x100 DUP1 DUP4 SLOAD DIV MUL DUP4 MSTORE SWAP2 PUSH1 0x20 ADD SWAP2 PUSH2 0xBBF JUMP JUMPDEST DUP3 ADD SWAP2 SWAP1 PUSH1 0x0 MSTORE PUSH1 0x20 PUSH1 0x0 KECCAK256 SWAP1 JUMPDEST DUP2 SLOAD DUP2 MSTORE SWAP1 PUSH1 0x1 ADD SWAP1 PUSH1 0x20 ADD DUP1 DUP4 GT PUSH2 0xBA2 JUMPI DUP3 SWAP1 SUB PUSH1 0x1F AND DUP3 ADD SWAP2 JUMPDEST POP POP POP POP POP DUP2 JUMP JUMPDEST PUSH1 0x0 SLOAD DUP2 JUMP JUMPDEST PUSH1 0x1 PUSH1 0x1 PUSH1 0xA0 SHL SUB DUP2 AND PUSH1 0x0 SWAP1 DUP2 MSTORE PUSH1 0x8 PUSH1 0x20 MSTORE PUSH1 0x40 SWAP1 KECCAK256 DUP1 SLOAD PUSH1 0x60 SWAP2 SWAP1 PUSH2 0xBF4 SWAP1 PUSH2 0x1F77 JUMP JUMPDEST DUP1 PUSH1 0x1F ADD PUSH1 0x20 DUP1 SWAP2 DIV MUL PUSH1 0x20 ADD PUSH1 0x40 MLOAD SWAP1 DUP2 ADD PUSH1 0x40 MSTORE DUP1 SWAP3 SWAP2 SWAP1 DUP2 DUP2 MSTORE PUSH1 0x20 ADD DUP3 DUP1 SLOAD PUSH2 0xC20 SWAP1 PUSH2 0x1F77 JUMP JUMPDEST DUP1 ISZERO PUSH2 0xC6D JUMPI DUP1 PUSH1 0x1F LT PUSH2 0xC42 JUMPI PUSH2 0x100 DUP1 DUP4 SLOAD DIV MUL DUP4 MSTORE SWAP2 PUSH1 0x20 ADD SWAP2 PUSH2 0xC6D JUMP JUMPDEST DUP3 ADD SWAP2 SWAP1 PUSH1 0x0 MSTORE PUSH1 0x20 PUSH1 0x0 KECCAK256 SWAP1 JUMPDEST DUP2 SLOAD DUP2 MSTORE SWAP1 PUSH1 0x1 ADD SWAP1 PUSH1 0x20 ADD DUP1 DUP4 GT PUSH2 0xC50 JUMPI DUP3 SWAP1 SUB PUSH1 0x1F AND DUP3 ADD SWAP2 JUMPDEST POP POP POP POP POP SWAP1 POP JUMPDEST SWAP2 SWAP1 POP JUMP JUMPDEST PUSH2 0xC84 PUSH1 0x0 PUSH2 0x1894 JUMP JUMPDEST PUSH1 0x0 PUSH1 0x40 MLOAD DUP1 PUSH1 0xC0 ADD PUSH1 0x40 MSTORE DUP1 DUP7 DUP2 MSTORE PUSH1 0x20 ADD DUP6 DUP2 MSTORE PUSH1 0x20 ADD CALLER PUSH1 0x1 PUSH1 0x1 PUSH1 0xA0 SHL SUB AND DUP2 MSTORE PUSH1 0x20 ADD DUP5 DUP2 MSTORE PUSH1 0x20 ADD PUSH2 0xCBC PUSH1 0x0 PUSH2 0x189D JUMP JUMPDEST DUP2 MSTORE PUSH1 0x20 SWAP1 DUP2 ADD DUP5 SWAP1 MSTORE PUSH1 0x2 DUP1 SLOAD PUSH1 0x1 DUP2 ADD DUP3 SSTORE PUSH1 0x0 SWAP2 SWAP1 SWAP2 MSTORE DUP8 MLOAD SWAP3 SWAP4 POP PUSH2 0xD0C SWAP3 PUSH32 0x405787FA12A823E0F2B7631CC41B3BA8828B3321CA811111FA75CD3AA3BB5ACE SWAP1 SWAP2 ADD SWAP2 DUP9 ADD SWAP1 PUSH2 0x192C JUMP JUMPDEST POP CALLER PUSH1 0x0 SWAP1 DUP2 MSTORE PUSH1 0x4 PUSH1 0x20 SWAP1 DUP2 MSTORE PUSH1 0x40 SWAP1 SWAP2 KECCAK256 DUP3 MLOAD DUP1 MLOAD DUP5 SWAP4 PUSH2 0xD33 SWAP3 DUP5 SWAP3 SWAP2 ADD SWAP1 PUSH2 0x192C JUMP JUMPDEST POP PUSH1 0x20 DUP3 DUP2 ADD MLOAD DUP1 MLOAD PUSH2 0xD4C SWAP3 PUSH1 0x1 DUP6 ADD SWAP3 ADD SWAP1 PUSH2 0x192C JUMP JUMPDEST POP PUSH1 0x40 DUP3 ADD MLOAD PUSH1 0x2 DUP3 ADD DUP1 SLOAD PUSH1 0x1 PUSH1 0x1 PUSH1 0xA0 SHL SUB NOT AND PUSH1 0x1 PUSH1 0x1 PUSH1 0xA0 SHL SUB SWAP1 SWAP3 AND SWAP2 SWAP1 SWAP2 OR SWAP1 SSTORE PUSH1 0x60 DUP3 ADD MLOAD DUP1 MLOAD PUSH2 0xD8E SWAP2 PUSH1 0x3 DUP5 ADD SWAP2 PUSH1 0x20 SWAP1 SWAP2 ADD SWAP1 PUSH2 0x192C JUMP JUMPDEST POP PUSH1 0x80 DUP3 ADD MLOAD PUSH1 0x4 DUP3 ADD SSTORE PUSH1 0xA0 DUP3 ADD MLOAD DUP1 MLOAD PUSH2 0xDB4 SWAP2 PUSH1 0x5 DUP5 ADD SWAP2 PUSH1 0x20 SWAP1 SWAP2 ADD SWAP1 PUSH2 0x192C JUMP JUMPDEST POP POP POP POP POP POP POP POP JUMP JUMPDEST PUSH1 0x5 PUSH1 0x20 MSTORE DUP2 PUSH1 0x0 MSTORE PUSH1 0x40 PUSH1 0x0 KECCAK256 DUP2 DUP2 SLOAD DUP2 LT PUSH2 0xDDA JUMPI PUSH1 0x0 DUP1 REVERT JUMPDEST PUSH1 0x0 SWAP2 DUP3 MSTORE PUSH1 0x20 SWAP1 SWAP2 KECCAK256 PUSH1 0x2 SWAP1 SWAP2 MUL ADD DUP1 SLOAD PUSH1 0x1 SWAP1 SWAP2 ADD SLOAD PUSH1 0x1 PUSH1 0x1 PUSH1 0xA0 SHL SUB SWAP2 DUP3 AND SWAP4 POP SWAP1 DUP2 AND SWAP2 POP PUSH1 0x1 PUSH1 0xA0 SHL SWAP1 DIV PUSH1 0xFF AND DUP4 JUMP JUMPDEST CALLER PUSH1 0x1 PUSH1 0x1 PUSH1 0xA0 SHL SUB DUP3 AND EQ ISZERO PUSH2 0xE3A JUMPI PUSH1 0x40 MLOAD PUSH3 0x461BCD PUSH1 0xE5 SHL DUP2 MSTORE PUSH1 0x4 ADD PUSH2 0x495 SWAP1 PUSH2 0x1EB2 JUMP JUMPDEST PUSH1 0x0 DUP1 JUMPDEST CALLER PUSH1 0x0 SWAP1 DUP2 MSTORE PUSH1 0x5 PUSH1 0x20 MSTORE PUSH1 0x40 SWAP1 KECCAK256 SLOAD DUP2 LT ISZERO PUSH2 0xECE JUMPI CALLER PUSH1 0x0 SWAP1 DUP2 MSTORE PUSH1 0x5 PUSH1 0x20 MSTORE PUSH1 0x40 SWAP1 KECCAK256 DUP1 SLOAD PUSH1 0x1 PUSH1 0x1 PUSH1 0xA0 SHL SUB DUP6 AND SWAP2 SWAP1 DUP4 SWAP1 DUP2 LT PUSH2 0xE90 JUMPI PUSH4 0x4E487B71 PUSH1 0xE0 SHL PUSH1 0x0 MSTORE PUSH1 0x32 PUSH1 0x4 MSTORE PUSH1 0x24 PUSH1 0x0 REVERT JUMPDEST PUSH1 0x0 SWAP2 DUP3 MSTORE PUSH1 0x20 SWAP1 SWAP2 KECCAK256 PUSH1 0x1 PUSH1 0x2 SWAP1 SWAP3 MUL ADD ADD SLOAD PUSH1 0x1 PUSH1 0x1 PUSH1 0xA0 SHL SUB AND EQ ISZERO PUSH2 0xEBC JUMPI PUSH1 0x1 SWAP2 POP PUSH2 0xECE JUMP JUMPDEST DUP1 PUSH2 0xEC6 DUP2 PUSH2 0x1FB2 JUMP JUMPDEST SWAP2 POP POP PUSH2 0xE3E JUMP JUMPDEST POP DUP1 ISZERO PUSH2 0xEED JUMPI PUSH1 0x40 MLOAD PUSH3 0x461BCD PUSH1 0xE5 SHL DUP2 MSTORE PUSH1 0x4 ADD PUSH2 0x495 SWAP1 PUSH2 0x1F2C JUMP JUMPDEST CALLER PUSH1 0x0 DUP2 DUP2 MSTORE PUSH1 0x5 PUSH1 0x20 SWAP1 DUP2 MSTORE PUSH1 0x40 DUP1 DUP4 KECCAK256 DUP2 MLOAD PUSH1 0x60 DUP1 DUP3 ADD DUP5 MSTORE DUP7 DUP3 MSTORE PUSH1 0x1 PUSH1 0x1 PUSH1 0xA0 SHL SUB DUP10 DUP2 AND DUP4 DUP8 ADD DUP2 DUP2 MSTORE DUP5 DUP8 ADD DUP10 DUP2 MSTORE DUP7 SLOAD PUSH1 0x1 DUP2 DUP2 ADD DUP10 SSTORE SWAP8 DUP12 MSTORE DUP10 DUP12 KECCAK256 SWAP7 MLOAD PUSH1 0x2 SWAP2 DUP3 MUL SWAP1 SWAP8 ADD DUP1 SLOAD SWAP8 DUP7 AND PUSH1 0x1 PUSH1 0x1 PUSH1 0xA0 SHL SUB NOT SWAP9 DUP10 AND OR DUP2 SSTORE SWAP3 MLOAD SWAP3 DUP9 ADD DUP1 SLOAD SWAP3 MLOAD ISZERO ISZERO PUSH1 0x1 PUSH1 0xA0 SHL SWAP1 DUP2 MUL PUSH1 0xFF PUSH1 0xA0 SHL NOT SWAP6 DUP9 AND SWAP5 DUP11 AND SWAP5 SWAP1 SWAP5 OR DUP6 AND SWAP4 SWAP1 SWAP4 OR SWAP1 SSTORE DUP4 DUP12 MSTORE PUSH1 0x7 DUP11 MSTORE DUP9 DUP12 KECCAK256 DUP10 MLOAD SWAP7 DUP8 ADD DUP11 MSTORE DUP13 DUP8 MSTORE DUP7 DUP12 ADD SWAP5 DUP6 MSTORE DUP7 DUP11 ADD DUP13 DUP2 MSTORE DUP2 SLOAD DUP1 DUP12 ADD DUP4 SSTORE SWAP2 DUP14 MSTORE SWAP11 SWAP1 SWAP12 KECCAK256 SWAP6 MLOAD SWAP11 MUL SWAP1 SWAP5 ADD DUP1 SLOAD SWAP10 DUP5 AND SWAP10 DUP7 AND SWAP10 SWAP1 SWAP10 OR DUP10 SSTORE SWAP1 MLOAD SWAP8 SWAP1 SWAP5 ADD DUP1 SLOAD SWAP7 MLOAD ISZERO ISZERO SWAP1 SWAP3 MUL SWAP7 AND SWAP5 SWAP1 SWAP2 AND SWAP4 SWAP1 SWAP4 OR AND SWAP3 SWAP1 SWAP3 OR SWAP1 SSTORE MLOAD PUSH32 0x8E80944630A2FAA57965AB9EBD299AD0B033FF10BF238EEFA5531254F86A88E5 SWAP2 PUSH2 0x100B SWAP2 DUP6 SWAP1 PUSH2 0x1CA3 JUMP JUMPDEST PUSH1 0x40 MLOAD DUP1 SWAP2 SUB SWAP1 LOG1 POP POP JUMP JUMPDEST PUSH1 0x7 PUSH1 0x20 MSTORE DUP2 PUSH1 0x0 MSTORE PUSH1 0x40 PUSH1 0x0 KECCAK256 DUP2 DUP2 SLOAD DUP2 LT PUSH2 0xDDA JUMPI PUSH1 0x0 DUP1 REVERT JUMPDEST PUSH1 0x40 DUP1 MLOAD PUSH1 0x20 DUP1 DUP3 ADD DUP4 MSTORE DUP4 DUP3 MSTORE CALLER PUSH1 0x0 SWAP1 DUP2 MSTORE PUSH1 0x8 DUP3 MSTORE SWAP3 SWAP1 SWAP3 KECCAK256 DUP2 MLOAD DUP1 MLOAD SWAP3 SWAP4 SWAP2 SWAP3 PUSH2 0x1064 SWAP3 DUP5 SWAP3 ADD SWAP1 PUSH2 0x192C JUMP JUMPDEST POP POP PUSH1 0x3 DUP1 SLOAD PUSH1 0x1 DUP2 ADD DUP3 SSTORE PUSH1 0x0 SWAP2 SWAP1 SWAP2 MSTORE DUP3 MLOAD PUSH2 0x10AC SWAP3 POP PUSH32 0xC2575A0E9E593C00F959F8C92F12DB2869C3395A3B0502D05E2516446F71F85B SWAP1 SWAP2 ADD SWAP1 PUSH1 0x20 DUP5 ADD SWAP1 PUSH2 0x192C JUMP JUMPDEST POP POP JUMP JUMPDEST PUSH1 0x3 DUP2 DUP2 SLOAD DUP2 LT PUSH2 0xB2B JUMPI PUSH1 0x0 DUP1 REVERT JUMPDEST PUSH2 0x10C8 PUSH2 0x19A0 JUMP JUMPDEST PUSH1 0x1 PUSH1 0x1 PUSH1 0xA0 SHL SUB DUP3 AND PUSH1 0x0 SWAP1 DUP2 MSTORE PUSH1 0x4 PUSH1 0x20 MSTORE PUSH1 0x40 SWAP1 DUP2 SWAP1 KECCAK256 DUP2 MLOAD PUSH1 0xC0 DUP2 ADD SWAP1 SWAP3 MSTORE DUP1 SLOAD DUP3 SWAP1 DUP3 SWAP1 PUSH2 0x10FA SWAP1 PUSH2 0x1F77 JUMP JUMPDEST DUP1 PUSH1 0x1F ADD PUSH1 0x20 DUP1 SWAP2 DIV MUL PUSH1 0x20 ADD PUSH1 0x40 MLOAD SWAP1 DUP2 ADD PUSH1 0x40 MSTORE DUP1 SWAP3 SWAP2 SWAP1 DUP2 DUP2 MSTORE PUSH1 0x20 ADD DUP3 DUP1 SLOAD PUSH2 0x1126 SWAP1 PUSH2 0x1F77 JUMP JUMPDEST DUP1 ISZERO PUSH2 0x1173 JUMPI DUP1 PUSH1 0x1F LT PUSH2 0x1148 JUMPI PUSH2 0x100 DUP1 DUP4 SLOAD DIV MUL DUP4 MSTORE SWAP2 PUSH1 0x20 ADD SWAP2 PUSH2 0x1173 JUMP JUMPDEST DUP3 ADD SWAP2 SWAP1 PUSH1 0x0 MSTORE PUSH1 0x20 PUSH1 0x0 KECCAK256 SWAP1 JUMPDEST DUP2 SLOAD DUP2 MSTORE SWAP1 PUSH1 0x1 ADD SWAP1 PUSH1 0x20 ADD DUP1 DUP4 GT PUSH2 0x1156 JUMPI DUP3 SWAP1 SUB PUSH1 0x1F AND DUP3 ADD SWAP2 JUMPDEST POP POP POP POP POP DUP2 MSTORE PUSH1 0x20 ADD PUSH1 0x1 DUP3 ADD DUP1 SLOAD PUSH2 0x118C SWAP1 PUSH2 0x1F77 JUMP JUMPDEST DUP1 PUSH1 0x1F ADD PUSH1 0x20 DUP1 SWAP2 DIV MUL PUSH1 0x20 ADD PUSH1 0x40 MLOAD SWAP1 DUP2 ADD PUSH1 0x40 MSTORE DUP1 SWAP3 SWAP2 SWAP1 DUP2 DUP2 MSTORE PUSH1 0x20 ADD DUP3 DUP1 SLOAD PUSH2 0x11B8 SWAP1 PUSH2 0x1F77 JUMP JUMPDEST DUP1 ISZERO PUSH2 0x1205 JUMPI DUP1 PUSH1 0x1F LT PUSH2 0x11DA JUMPI PUSH2 0x100 DUP1 DUP4 SLOAD DIV MUL DUP4 MSTORE SWAP2 PUSH1 0x20 ADD SWAP2 PUSH2 0x1205 JUMP JUMPDEST DUP3 ADD SWAP2 SWAP1 PUSH1 0x0 MSTORE PUSH1 0x20 PUSH1 0x0 KECCAK256 SWAP1 JUMPDEST DUP2 SLOAD DUP2 MSTORE SWAP1 PUSH1 0x1 ADD SWAP1 PUSH1 0x20 ADD DUP1 DUP4 GT PUSH2 0x11E8 JUMPI DUP3 SWAP1 SUB PUSH1 0x1F AND DUP3 ADD SWAP2 JUMPDEST POP POP POP SWAP2 DUP4 MSTORE POP POP PUSH1 0x2 DUP3 ADD SLOAD PUSH1 0x1 PUSH1 0x1 PUSH1 0xA0 SHL SUB AND PUSH1 0x20 DUP3 ADD MSTORE PUSH1 0x3 DUP3 ADD DUP1 SLOAD PUSH1 0x40 SWAP1 SWAP3 ADD SWAP2 PUSH2 0x1235 SWAP1 PUSH2 0x1F77 JUMP JUMPDEST DUP1 PUSH1 0x1F ADD PUSH1 0x20 DUP1 SWAP2 DIV MUL PUSH1 0x20 ADD PUSH1 0x40 MLOAD SWAP1 DUP2 ADD PUSH1 0x40 MSTORE DUP1 SWAP3 SWAP2 SWAP1 DUP2 DUP2 MSTORE PUSH1 0x20 ADD DUP3 DUP1 SLOAD PUSH2 0x1261 SWAP1 PUSH2 0x1F77 JUMP JUMPDEST DUP1 ISZERO PUSH2 0x12AE JUMPI DUP1 PUSH1 0x1F LT PUSH2 0x1283 JUMPI PUSH2 0x100 DUP1 DUP4 SLOAD DIV MUL DUP4 MSTORE SWAP2 PUSH1 0x20 ADD SWAP2 PUSH2 0x12AE JUMP JUMPDEST DUP3 ADD SWAP2 SWAP1 PUSH1 0x0 MSTORE PUSH1 0x20 PUSH1 0x0 KECCAK256 SWAP1 JUMPDEST DUP2 SLOAD DUP2 MSTORE SWAP1 PUSH1 0x1 ADD SWAP1 PUSH1 0x20 ADD DUP1 DUP4 GT PUSH2 0x1291 JUMPI DUP3 SWAP1 SUB PUSH1 0x1F AND DUP3 ADD SWAP2 JUMPDEST POP POP POP POP POP DUP2 MSTORE PUSH1 0x20 ADD PUSH1 0x4 DUP3 ADD SLOAD DUP2 MSTORE PUSH1 0x20 ADD PUSH1 0x5 DUP3 ADD DUP1 SLOAD PUSH2 0x12D1 SWAP1 PUSH2 0x1F77 JUMP JUMPDEST DUP1 PUSH1 0x1F ADD PUSH1 0x20 DUP1 SWAP2 DIV MUL PUSH1 0x20 ADD PUSH1 0x40 MLOAD SWAP1 DUP2 ADD PUSH1 0x40 MSTORE DUP1 SWAP3 SWAP2 SWAP1 DUP2 DUP2 MSTORE PUSH1 0x20 ADD DUP3 DUP1 SLOAD PUSH2 0x12FD SWAP1 PUSH2 0x1F77 JUMP JUMPDEST DUP1 ISZERO PUSH2 0x134A JUMPI DUP1 PUSH1 0x1F LT PUSH2 0x131F JUMPI PUSH2 0x100 DUP1 DUP4 SLOAD DIV MUL DUP4 MSTORE SWAP2 PUSH1 0x20 ADD SWAP2 PUSH2 0x134A JUMP JUMPDEST DUP3 ADD SWAP2 SWAP1 PUSH1 0x0 MSTORE PUSH1 0x20 PUSH1 0x0 KECCAK256 SWAP1 JUMPDEST DUP2 SLOAD DUP2 MSTORE SWAP1 PUSH1 0x1 ADD SWAP1 PUSH1 0x20 ADD DUP1 DUP4 GT PUSH2 0x132D JUMPI DUP3 SWAP1 SUB PUSH1 0x1F AND DUP3 ADD SWAP2 JUMPDEST POP POP POP POP POP DUP2 MSTORE POP POP SWAP1 POP SWAP2 SWAP1 POP JUMP JUMPDEST PUSH1 0x60 PUSH1 0x3 DUP1 SLOAD DUP1 PUSH1 0x20 MUL PUSH1 0x20 ADD PUSH1 0x40 MLOAD SWAP1 DUP2 ADD PUSH1 0x40 MSTORE DUP1 SWAP3 SWAP2 SWAP1 DUP2 DUP2 MSTORE PUSH1 0x20 ADD PUSH1 0x0 SWAP1 JUMPDEST DUP3 DUP3 LT ISZERO PUSH2 0x142A JUMPI DUP4 DUP3 SWAP1 PUSH1 0x0 MSTORE PUSH1 0x20 PUSH1 0x0 KECCAK256 ADD DUP1 SLOAD PUSH2 0x139D SWAP1 PUSH2 0x1F77 JUMP JUMPDEST DUP1 PUSH1 0x1F ADD PUSH1 0x20 DUP1 SWAP2 DIV MUL PUSH1 0x20 ADD PUSH1 0x40 MLOAD SWAP1 DUP2 ADD PUSH1 0x40 MSTORE DUP1 SWAP3 SWAP2 SWAP1 DUP2 DUP2 MSTORE PUSH1 0x20 ADD DUP3 DUP1 SLOAD PUSH2 0x13C9 SWAP1 PUSH2 0x1F77 JUMP JUMPDEST DUP1 ISZERO PUSH2 0x1416 JUMPI DUP1 PUSH1 0x1F LT PUSH2 0x13EB JUMPI PUSH2 0x100 DUP1 DUP4 SLOAD DIV MUL DUP4 MSTORE SWAP2 PUSH1 0x20 ADD SWAP2 PUSH2 0x1416 JUMP JUMPDEST DUP3 ADD SWAP2 SWAP1 PUSH1 0x0 MSTORE PUSH1 0x20 PUSH1 0x0 KECCAK256 SWAP1 JUMPDEST DUP2 SLOAD DUP2 MSTORE SWAP1 PUSH1 0x1 ADD SWAP1 PUSH1 0x20 ADD DUP1 DUP4 GT PUSH2 0x13F9 JUMPI DUP3 SWAP1 SUB PUSH1 0x1F AND DUP3 ADD SWAP2 JUMPDEST POP POP POP POP POP DUP2 MSTORE PUSH1 0x20 ADD SWAP1 PUSH1 0x1 ADD SWAP1 PUSH2 0x137E JUMP JUMPDEST POP POP POP POP SWAP1 POP SWAP1 JUMP JUMPDEST PUSH1 0x1 PUSH1 0x1 PUSH1 0xA0 SHL SUB DUP2 AND PUSH1 0x0 SWAP1 DUP2 MSTORE PUSH1 0x6 PUSH1 0x20 SWAP1 DUP2 MSTORE PUSH1 0x40 DUP1 DUP4 KECCAK256 DUP1 SLOAD DUP3 MLOAD DUP2 DUP6 MUL DUP2 ADD DUP6 ADD SWAP1 SWAP4 MSTORE DUP1 DUP4 MSTORE PUSH1 0x60 SWAP5 SWAP3 SWAP4 SWAP2 SWAP3 SWAP1 SWAP2 DUP5 ADD JUMPDEST DUP3 DUP3 LT ISZERO PUSH2 0x1706 JUMPI DUP4 DUP3 SWAP1 PUSH1 0x0 MSTORE PUSH1 0x20 PUSH1 0x0 KECCAK256 SWAP1 PUSH1 0x6 MUL ADD PUSH1 0x40 MLOAD DUP1 PUSH1 0xC0 ADD PUSH1 0x40 MSTORE SWAP1 DUP2 PUSH1 0x0 DUP3 ADD DUP1 SLOAD PUSH2 0x149E SWAP1 PUSH2 0x1F77 JUMP JUMPDEST DUP1 PUSH1 0x1F ADD PUSH1 0x20 DUP1 SWAP2 DIV MUL PUSH1 0x20 ADD PUSH1 0x40 MLOAD SWAP1 DUP2 ADD PUSH1 0x40 MSTORE DUP1 SWAP3 SWAP2 SWAP1 DUP2 DUP2 MSTORE PUSH1 0x20 ADD DUP3 DUP1 SLOAD PUSH2 0x14CA SWAP1 PUSH2 0x1F77 JUMP JUMPDEST DUP1 ISZERO PUSH2 0x1517 JUMPI DUP1 PUSH1 0x1F LT PUSH2 0x14EC JUMPI PUSH2 0x100 DUP1 DUP4 SLOAD DIV MUL DUP4 MSTORE SWAP2 PUSH1 0x20 ADD SWAP2 PUSH2 0x1517 JUMP JUMPDEST DUP3 ADD SWAP2 SWAP1 PUSH1 0x0 MSTORE PUSH1 0x20 PUSH1 0x0 KECCAK256 SWAP1 JUMPDEST DUP2 SLOAD DUP2 MSTORE SWAP1 PUSH1 0x1 ADD SWAP1 PUSH1 0x20 ADD DUP1 DUP4 GT PUSH2 0x14FA JUMPI DUP3 SWAP1 SUB PUSH1 0x1F AND DUP3 ADD SWAP2 JUMPDEST POP POP POP POP POP DUP2 MSTORE PUSH1 0x20 ADD PUSH1 0x1 DUP3 ADD DUP1 SLOAD PUSH2 0x1530 SWAP1 PUSH2 0x1F77 JUMP JUMPDEST DUP1 PUSH1 0x1F ADD PUSH1 0x20 DUP1 SWAP2 DIV MUL PUSH1 0x20 ADD PUSH1 0x40 MLOAD SWAP1 DUP2 ADD PUSH1 0x40 MSTORE DUP1 SWAP3 SWAP2 SWAP1 DUP2 DUP2 MSTORE PUSH1 0x20 ADD DUP3 DUP1 SLOAD PUSH2 0x155C SWAP1 PUSH2 0x1F77 JUMP JUMPDEST DUP1 ISZERO PUSH2 0x15A9 JUMPI DUP1 PUSH1 0x1F LT PUSH2 0x157E JUMPI PUSH2 0x100 DUP1 DUP4 SLOAD DIV MUL DUP4 MSTORE SWAP2 PUSH1 0x20 ADD SWAP2 PUSH2 0x15A9 JUMP JUMPDEST DUP3 ADD SWAP2 SWAP1 PUSH1 0x0 MSTORE PUSH1 0x20 PUSH1 0x0 KECCAK256 SWAP1 JUMPDEST DUP2 SLOAD DUP2 MSTORE SWAP1 PUSH1 0x1 ADD SWAP1 PUSH1 0x20 ADD DUP1 DUP4 GT PUSH2 0x158C JUMPI DUP3 SWAP1 SUB PUSH1 0x1F AND DUP3 ADD SWAP2 JUMPDEST POP POP POP SWAP2 DUP4 MSTORE POP POP PUSH1 0x2 DUP3 ADD SLOAD PUSH1 0x1 PUSH1 0x1 PUSH1 0xA0 SHL SUB AND PUSH1 0x20 DUP3 ADD MSTORE PUSH1 0x3 DUP3 ADD DUP1 SLOAD PUSH1 0x40 SWAP1 SWAP3 ADD SWAP2 PUSH2 0x15D9 SWAP1 PUSH2 0x1F77 JUMP JUMPDEST DUP1 PUSH1 0x1F ADD PUSH1 0x20 DUP1 SWAP2 DIV MUL PUSH1 0x20 ADD PUSH1 0x40 MLOAD SWAP1 DUP2 ADD PUSH1 0x40 MSTORE DUP1 SWAP3 SWAP2 SWAP1 DUP2 DUP2 MSTORE PUSH1 0x20 ADD DUP3 DUP1 SLOAD PUSH2 0x1605 SWAP1 PUSH2 0x1F77 JUMP JUMPDEST DUP1 ISZERO PUSH2 0x1652 JUMPI DUP1 PUSH1 0x1F LT PUSH2 0x1627 JUMPI PUSH2 0x100 DUP1 DUP4 SLOAD DIV MUL DUP4 MSTORE SWAP2 PUSH1 0x20 ADD SWAP2 PUSH2 0x1652 JUMP JUMPDEST DUP3 ADD SWAP2 SWAP1 PUSH1 0x0 MSTORE PUSH1 0x20 PUSH1 0x0 KECCAK256 SWAP1 JUMPDEST DUP2 SLOAD DUP2 MSTORE SWAP1 PUSH1 0x1 ADD SWAP1 PUSH1 0x20 ADD DUP1 DUP4 GT PUSH2 0x1635 JUMPI DUP3 SWAP1 SUB PUSH1 0x1F AND DUP3 ADD SWAP2 JUMPDEST POP POP POP POP POP DUP2 MSTORE PUSH1 0x20 ADD PUSH1 0x4 DUP3 ADD SLOAD DUP2 MSTORE PUSH1 0x20 ADD PUSH1 0x5 DUP3 ADD DUP1 SLOAD PUSH2 0x1675 SWAP1 PUSH2 0x1F77 JUMP JUMPDEST DUP1 PUSH1 0x1F ADD PUSH1 0x20 DUP1 SWAP2 DIV MUL PUSH1 0x20 ADD PUSH1 0x40 MLOAD SWAP1 DUP2 ADD PUSH1 0x40 MSTORE DUP1 SWAP3 SWAP2 SWAP1 DUP2 DUP2 MSTORE PUSH1 0x20 ADD DUP3 DUP1 SLOAD PUSH2 0x16A1 SWAP1 PUSH2 0x1F77 JUMP JUMPDEST DUP1 ISZERO PUSH2 0x16EE JUMPI DUP1 PUSH1 0x1F LT PUSH2 0x16C3 JUMPI PUSH2 0x100 DUP1 DUP4 SLOAD DIV MUL DUP4 MSTORE SWAP2 PUSH1 0x20 ADD SWAP2 PUSH2 0x16EE JUMP JUMPDEST DUP3 ADD SWAP2 SWAP1 PUSH1 0x0 MSTORE PUSH1 0x20 PUSH1 0x0 KECCAK256 SWAP1 JUMPDEST DUP2 SLOAD DUP2 MSTORE SWAP1 PUSH1 0x1 ADD SWAP1 PUSH1 0x20 ADD DUP1 DUP4 GT PUSH2 0x16D1 JUMPI DUP3 SWAP1 SUB PUSH1 0x1F AND DUP3 ADD SWAP2 JUMPDEST POP POP POP POP POP DUP2 MSTORE POP POP DUP2 MSTORE PUSH1 0x20 ADD SWAP1 PUSH1 0x1 ADD SWAP1 PUSH2 0x146B JUMP JUMPDEST POP POP POP POP SWAP1 POP SWAP2 SWAP1 POP JUMP JUMPDEST PUSH1 0x60 PUSH1 0x2 DUP1 SLOAD DUP1 PUSH1 0x20 MUL PUSH1 0x20 ADD PUSH1 0x40 MLOAD SWAP1 DUP2 ADD PUSH1 0x40 MSTORE DUP1 SWAP3 SWAP2 SWAP1 DUP2 DUP2 MSTORE PUSH1 0x20 ADD PUSH1 0x0 SWAP1 JUMPDEST DUP3 DUP3 LT ISZERO PUSH2 0x142A JUMPI DUP4 DUP3 SWAP1 PUSH1 0x0 MSTORE PUSH1 0x20 PUSH1 0x0 KECCAK256 ADD DUP1 SLOAD PUSH2 0x1754 SWAP1 PUSH2 0x1F77 JUMP JUMPDEST DUP1 PUSH1 0x1F ADD PUSH1 0x20 DUP1 SWAP2 DIV MUL PUSH1 0x20 ADD PUSH1 0x40 MLOAD SWAP1 DUP2 ADD PUSH1 0x40 MSTORE DUP1 SWAP3 SWAP2 SWAP1 DUP2 DUP2 MSTORE PUSH1 0x20 ADD DUP3 DUP1 SLOAD PUSH2 0x1780 SWAP1 PUSH2 0x1F77 JUMP JUMPDEST DUP1 ISZERO PUSH2 0x17CD JUMPI DUP1 PUSH1 0x1F LT PUSH2 0x17A2 JUMPI PUSH2 0x100 DUP1 DUP4 SLOAD DIV MUL DUP4 MSTORE SWAP2 PUSH1 0x20 ADD SWAP2 PUSH2 0x17CD JUMP JUMPDEST DUP3 ADD SWAP2 SWAP1 PUSH1 0x0 MSTORE PUSH1 0x20 PUSH1 0x0 KECCAK256 SWAP1 JUMPDEST DUP2 SLOAD DUP2 MSTORE SWAP1 PUSH1 0x1 ADD SWAP1 PUSH1 0x20 ADD DUP1 DUP4 GT PUSH2 0x17B0 JUMPI DUP3 SWAP1 SUB PUSH1 0x1F AND DUP3 ADD SWAP2 JUMPDEST POP POP POP POP POP DUP2 MSTORE PUSH1 0x20 ADD SWAP1 PUSH1 0x1 ADD SWAP1 PUSH2 0x1735 JUMP JUMPDEST PUSH1 0x4 PUSH1 0x20 MSTORE PUSH1 0x0 SWAP1 DUP2 MSTORE PUSH1 0x40 SWAP1 KECCAK256 DUP1 SLOAD DUP2 SWAP1 PUSH2 0x8D3 SWAP1 PUSH2 0x1F77 JUMP JUMPDEST PUSH1 0x1 PUSH1 0x1 PUSH1 0xA0 SHL SUB DUP2 AND PUSH1 0x0 SWAP1 DUP2 MSTORE PUSH1 0x7 PUSH1 0x20 SWAP1 DUP2 MSTORE PUSH1 0x40 DUP1 DUP4 KECCAK256 DUP1 SLOAD DUP3 MLOAD DUP2 DUP6 MUL DUP2 ADD DUP6 ADD SWAP1 SWAP4 MSTORE DUP1 DUP4 MSTORE PUSH1 0x60 SWAP5 SWAP3 SWAP4 SWAP2 SWAP3 SWAP1 SWAP2 DUP5 ADD JUMPDEST DUP3 DUP3 LT ISZERO PUSH2 0x1706 JUMPI PUSH1 0x0 DUP5 DUP2 MSTORE PUSH1 0x20 SWAP1 DUP2 SWAP1 KECCAK256 PUSH1 0x40 DUP1 MLOAD PUSH1 0x60 DUP2 ADD DUP3 MSTORE PUSH1 0x2 DUP7 MUL SWAP1 SWAP3 ADD DUP1 SLOAD PUSH1 0x1 PUSH1 0x1 PUSH1 0xA0 SHL SUB SWAP1 DUP2 AND DUP5 MSTORE PUSH1 0x1 SWAP2 DUP3 ADD SLOAD SWAP1 DUP2 AND DUP5 DUP7 ADD MSTORE PUSH1 0x1 PUSH1 0xA0 SHL SWAP1 DIV PUSH1 0xFF AND ISZERO ISZERO SWAP2 DUP4 ADD SWAP2 SWAP1 SWAP2 MSTORE SWAP1 DUP4 MSTORE SWAP1 SWAP3 ADD SWAP2 ADD PUSH2 0x1834 JUMP JUMPDEST DUP1 SLOAD PUSH1 0x1 ADD SWAP1 SSTORE JUMP JUMPDEST SLOAD SWAP1 JUMP JUMPDEST DUP3 DUP1 SLOAD PUSH2 0x18AD SWAP1 PUSH2 0x1F77 JUMP JUMPDEST SWAP1 PUSH1 0x0 MSTORE PUSH1 0x20 PUSH1 0x0 KECCAK256 SWAP1 PUSH1 0x1F ADD PUSH1 0x20 SWAP1 DIV DUP2 ADD SWAP3 DUP3 PUSH2 0x18CF JUMPI PUSH1 0x0 DUP6 SSTORE PUSH2 0x191C JUMP JUMPDEST DUP3 PUSH1 0x1F LT PUSH2 0x18E0 JUMPI DUP1 SLOAD DUP6 SSTORE PUSH2 0x191C JUMP JUMPDEST DUP3 DUP1 ADD PUSH1 0x1 ADD DUP6 SSTORE DUP3 ISZERO PUSH2 0x191C JUMPI PUSH1 0x0 MSTORE PUSH1 0x20 PUSH1 0x0 KECCAK256 SWAP2 PUSH1 0x1F ADD PUSH1 0x20 SWAP1 DIV DUP3 ADD JUMPDEST DUP3 DUP2 GT ISZERO PUSH2 0x191C JUMPI DUP3 SLOAD DUP3 SSTORE SWAP2 PUSH1 0x1 ADD SWAP2 SWAP1 PUSH1 0x1 ADD SWAP1 PUSH2 0x1901 JUMP JUMPDEST POP PUSH2 0x1928 SWAP3 SWAP2 POP PUSH2 0x19DF JUMP JUMPDEST POP SWAP1 JUMP JUMPDEST DUP3 DUP1 SLOAD PUSH2 0x1938 SWAP1 PUSH2 0x1F77 JUMP JUMPDEST SWAP1 PUSH1 0x0 MSTORE PUSH1 0x20 PUSH1 0x0 KECCAK256 SWAP1 PUSH1 0x1F ADD PUSH1 0x20 SWAP1 DIV DUP2 ADD SWAP3 DUP3 PUSH2 0x195A JUMPI PUSH1 0x0 DUP6 SSTORE PUSH2 0x191C JUMP JUMPDEST DUP3 PUSH1 0x1F LT PUSH2 0x1973 JUMPI DUP1 MLOAD PUSH1 0xFF NOT AND DUP4 DUP1 ADD OR DUP6 SSTORE PUSH2 0x191C JUMP JUMPDEST DUP3 DUP1 ADD PUSH1 0x1 ADD DUP6 SSTORE DUP3 ISZERO PUSH2 0x191C JUMPI SWAP2 DUP3 ADD JUMPDEST DUP3 DUP2 GT ISZERO PUSH2 0x191C JUMPI DUP3 MLOAD DUP3 SSTORE SWAP2 PUSH1 0x20 ADD SWAP2 SWAP1 PUSH1 0x1 ADD SWAP1 PUSH2 0x1985 JUMP JUMPDEST PUSH1 0x40 MLOAD DUP1 PUSH1 0xC0 ADD PUSH1 0x40 MSTORE DUP1 PUSH1 0x60 DUP2 MSTORE PUSH1 0x20 ADD PUSH1 0x60 DUP2 MSTORE PUSH1 0x20 ADD PUSH1 0x0 PUSH1 0x1 PUSH1 0x1 PUSH1 0xA0 SHL SUB AND DUP2 MSTORE PUSH1 0x20 ADD PUSH1 0x60 DUP2 MSTORE PUSH1 0x20 ADD PUSH1 0x0 DUP2 MSTORE PUSH1 0x20 ADD PUSH1 0x60 DUP2 MSTORE POP SWAP1 JUMP JUMPDEST JUMPDEST DUP1 DUP3 GT ISZERO PUSH2 0x1928 JUMPI PUSH1 0x0 DUP2 SSTORE PUSH1 0x1 ADD PUSH2 0x19E0 JUMP JUMPDEST DUP1 CALLDATALOAD PUSH1 0x1 PUSH1 0x1 PUSH1 0xA0 SHL SUB DUP2 AND DUP2 EQ PUSH2 0xC75 JUMPI PUSH1 0x0 DUP1 REVERT JUMPDEST PUSH1 0x0 DUP3 PUSH1 0x1F DUP4 ADD SLT PUSH2 0x1A1B JUMPI DUP1 DUP2 REVERT JUMPDEST DUP2 CALLDATALOAD PUSH8 0xFFFFFFFFFFFFFFFF DUP1 DUP3 GT ISZERO PUSH2 0x1A36 JUMPI PUSH2 0x1A36 PUSH2 0x1FD9 JUMP JUMPDEST PUSH1 0x40 MLOAD PUSH1 0x1F DUP4 ADD PUSH1 0x1F NOT AND DUP2 ADD PUSH1 0x20 ADD DUP3 DUP2 GT DUP3 DUP3 LT OR ISZERO PUSH2 0x1A5A JUMPI PUSH2 0x1A5A PUSH2 0x1FD9 JUMP JUMPDEST PUSH1 0x40 MSTORE DUP3 DUP2 MSTORE DUP5 DUP4 ADD PUSH1 0x20 ADD DUP7 LT ISZERO PUSH2 0x1A71 JUMPI DUP4 DUP5 REVERT JUMPDEST DUP3 PUSH1 0x20 DUP7 ADD PUSH1 0x20 DUP4 ADD CALLDATACOPY SWAP2 DUP3 ADD PUSH1 0x20 ADD SWAP3 SWAP1 SWAP3 MSTORE SWAP4 SWAP3 POP POP POP JUMP JUMPDEST PUSH1 0x0 PUSH1 0x20 DUP3 DUP5 SUB SLT ISZERO PUSH2 0x1A9D JUMPI DUP1 DUP2 REVERT JUMPDEST PUSH2 0x1AA6 DUP3 PUSH2 0x19F4 JUMP JUMPDEST SWAP4 SWAP3 POP POP POP JUMP JUMPDEST PUSH1 0x0 DUP1 PUSH1 0x40 DUP4 DUP6 SUB SLT ISZERO PUSH2 0x1ABF JUMPI DUP1 DUP2 REVERT JUMPDEST PUSH2 0x1AC8 DUP4 PUSH2 0x19F4 JUMP JUMPDEST SWAP5 PUSH1 0x20 SWAP4 SWAP1 SWAP4 ADD CALLDATALOAD SWAP4 POP POP POP JUMP JUMPDEST PUSH1 0x0 PUSH1 0x20 DUP3 DUP5 SUB SLT ISZERO PUSH2 0x1AE7 JUMPI DUP1 DUP2 REVERT JUMPDEST DUP2 CALLDATALOAD PUSH8 0xFFFFFFFFFFFFFFFF DUP2 GT ISZERO PUSH2 0x1AFD JUMPI DUP2 DUP3 REVERT JUMPDEST PUSH2 0x1B09 DUP5 DUP3 DUP6 ADD PUSH2 0x1A0B JUMP JUMPDEST SWAP5 SWAP4 POP POP POP POP JUMP JUMPDEST PUSH1 0x0 DUP1 PUSH1 0x0 DUP1 PUSH1 0x80 DUP6 DUP8 SUB SLT ISZERO PUSH2 0x1B26 JUMPI DUP2 DUP3 REVERT JUMPDEST DUP5 CALLDATALOAD PUSH8 0xFFFFFFFFFFFFFFFF DUP1 DUP3 GT ISZERO PUSH2 0x1B3D JUMPI DUP4 DUP5 REVERT JUMPDEST PUSH2 0x1B49 DUP9 DUP4 DUP10 ADD PUSH2 0x1A0B JUMP JUMPDEST SWAP6 POP PUSH1 0x20 DUP8 ADD CALLDATALOAD SWAP2 POP DUP1 DUP3 GT ISZERO PUSH2 0x1B5E JUMPI DUP4 DUP5 REVERT JUMPDEST PUSH2 0x1B6A DUP9 DUP4 DUP10 ADD PUSH2 0x1A0B JUMP JUMPDEST SWAP5 POP PUSH1 0x40 DUP8 ADD CALLDATALOAD SWAP2 POP DUP1 DUP3 GT ISZERO PUSH2 0x1B7F JUMPI DUP4 DUP5 REVERT JUMPDEST PUSH2 0x1B8B DUP9 DUP4 DUP10 ADD PUSH2 0x1A0B JUMP JUMPDEST SWAP4 POP PUSH1 0x60 DUP8 ADD CALLDATALOAD SWAP2 POP DUP1 DUP3 GT ISZERO PUSH2 0x1BA0 JUMPI DUP3 DUP4 REVERT JUMPDEST POP PUSH2 0x1BAD DUP8 DUP3 DUP9 ADD PUSH2 0x1A0B JUMP JUMPDEST SWAP2 POP POP SWAP3 SWAP6 SWAP2 SWAP5 POP SWAP3 POP JUMP JUMPDEST PUSH1 0x0 PUSH1 0x20 DUP3 DUP5 SUB SLT ISZERO PUSH2 0x1BCA JUMPI DUP1 DUP2 REVERT JUMPDEST POP CALLDATALOAD SWAP2 SWAP1 POP JUMP JUMPDEST PUSH1 0x0 DUP2 MLOAD DUP1 DUP5 MSTORE DUP2 JUMPDEST DUP2 DUP2 LT ISZERO PUSH2 0x1BF6 JUMPI PUSH1 0x20 DUP2 DUP6 ADD DUP2 ADD MLOAD DUP7 DUP4 ADD DUP3 ADD MSTORE ADD PUSH2 0x1BDA JUMP JUMPDEST DUP2 DUP2 GT ISZERO PUSH2 0x1C07 JUMPI DUP3 PUSH1 0x20 DUP4 DUP8 ADD ADD MSTORE JUMPDEST POP PUSH1 0x1F ADD PUSH1 0x1F NOT AND SWAP3 SWAP1 SWAP3 ADD PUSH1 0x20 ADD SWAP3 SWAP2 POP POP JUMP JUMPDEST PUSH1 0x0 DUP2 MLOAD PUSH1 0xC0 DUP5 MSTORE PUSH2 0x1C31 PUSH1 0xC0 DUP6 ADD DUP3 PUSH2 0x1BD1 JUMP JUMPDEST SWAP1 POP PUSH1 0x20 DUP4 ADD MLOAD DUP5 DUP3 SUB PUSH1 0x20 DUP7 ADD MSTORE PUSH2 0x1C4A DUP3 DUP3 PUSH2 0x1BD1 JUMP JUMPDEST SWAP2 POP POP PUSH1 0x1 DUP1 PUSH1 0xA0 SHL SUB PUSH1 0x40 DUP5 ADD MLOAD AND PUSH1 0x40 DUP6 ADD MSTORE PUSH1 0x60 DUP4 ADD MLOAD DUP5 DUP3 SUB PUSH1 0x60 DUP7 ADD MSTORE PUSH2 0x1C76 DUP3 DUP3 PUSH2 0x1BD1 JUMP JUMPDEST SWAP2 POP POP PUSH1 0x80 DUP4 ADD MLOAD PUSH1 0x80 DUP6 ADD MSTORE PUSH1 0xA0 DUP4 ADD MLOAD DUP5 DUP3 SUB PUSH1 0xA0 DUP7 ADD MSTORE PUSH2 0x1C9A DUP3 DUP3 PUSH2 0x1BD1 JUMP JUMPDEST SWAP6 SWAP5 POP POP POP POP POP JUMP JUMPDEST PUSH1 0x1 PUSH1 0x1 PUSH1 0xA0 SHL SUB SWAP3 DUP4 AND DUP2 MSTORE SWAP2 AND PUSH1 0x20 DUP3 ADD MSTORE PUSH1 0x40 ADD SWAP1 JUMP JUMPDEST PUSH1 0x1 PUSH1 0x1 PUSH1 0xA0 SHL SUB SWAP4 DUP5 AND DUP2 MSTORE SWAP2 SWAP1 SWAP3 AND PUSH1 0x20 DUP3 ADD MSTORE SWAP1 ISZERO ISZERO PUSH1 0x40 DUP3 ADD MSTORE PUSH1 0x60 ADD SWAP1 JUMP JUMPDEST PUSH1 0x0 PUSH1 0x20 DUP1 DUP4 ADD DUP2 DUP5 MSTORE DUP1 DUP6 MLOAD DUP1 DUP4 MSTORE PUSH1 0x40 DUP7 ADD SWAP2 POP PUSH1 0x40 DUP5 DUP3 MUL DUP8 ADD ADD SWAP3 POP DUP4 DUP8 ADD DUP6 JUMPDEST DUP3 DUP2 LT ISZERO PUSH2 0x1D34 JUMPI PUSH1 0x3F NOT DUP9 DUP7 SUB ADD DUP5 MSTORE PUSH2 0x1D22 DUP6 DUP4 MLOAD PUSH2 0x1BD1 JUMP JUMPDEST SWAP5 POP SWAP3 DUP6 ADD SWAP3 SWAP1 DUP6 ADD SWAP1 PUSH1 0x1 ADD PUSH2 0x1D06 JUMP JUMPDEST POP SWAP3 SWAP8 SWAP7 POP POP POP POP POP POP POP JUMP JUMPDEST PUSH1 0x20 DUP1 DUP3 MSTORE DUP3 MLOAD DUP3 DUP3 ADD DUP2 SWAP1 MSTORE PUSH1 0x0 SWAP2 SWAP1 PUSH1 0x40 SWAP1 DUP2 DUP6 ADD SWAP1 DUP7 DUP5 ADD DUP6 JUMPDEST DUP3 DUP2 LT ISZERO PUSH2 0x1D9B JUMPI DUP2 MLOAD DUP1 MLOAD PUSH1 0x1 PUSH1 0x1 PUSH1 0xA0 SHL SUB SWAP1 DUP2 AND DUP7 MSTORE DUP8 DUP3 ADD MLOAD AND DUP8 DUP7 ADD MSTORE DUP6 ADD MLOAD ISZERO ISZERO DUP6 DUP6 ADD MSTORE PUSH1 0x60 SWAP1 SWAP4 ADD SWAP3 SWAP1 DUP6 ADD SWAP1 PUSH1 0x1 ADD PUSH2 0x1D5E JUMP JUMPDEST POP SWAP2 SWAP8 SWAP7 POP POP POP POP POP POP POP JUMP JUMPDEST PUSH1 0x0 PUSH1 0x20 DUP1 DUP4 ADD DUP2 DUP5 MSTORE DUP1 DUP6 MLOAD DUP1 DUP4 MSTORE PUSH1 0x40 DUP7 ADD SWAP2 POP PUSH1 0x40 DUP5 DUP3 MUL DUP8 ADD ADD SWAP3 POP DUP4 DUP8 ADD DUP6 JUMPDEST DUP3 DUP2 LT ISZERO PUSH2 0x1D34 JUMPI PUSH1 0x3F NOT DUP9 DUP7 SUB ADD DUP5 MSTORE PUSH2 0x1DE9 DUP6 DUP4 MLOAD PUSH2 0x1C1C JUMP JUMPDEST SWAP5 POP SWAP3 DUP6 ADD SWAP3 SWAP1 DUP6 ADD SWAP1 PUSH1 0x1 ADD PUSH2 0x1DCD JUMP JUMPDEST PUSH1 0x0 PUSH1 0x20 DUP3 MSTORE PUSH2 0x1AA6 PUSH1 0x20 DUP4 ADD DUP5 PUSH2 0x1BD1 JUMP JUMPDEST PUSH1 0x0 PUSH1 0xC0 DUP3 MSTORE PUSH2 0x1E21 PUSH1 0xC0 DUP4 ADD DUP10 PUSH2 0x1BD1 JUMP JUMPDEST DUP3 DUP2 SUB PUSH1 0x20 DUP5 ADD MSTORE PUSH2 0x1E33 DUP2 DUP10 PUSH2 0x1BD1 JUMP JUMPDEST PUSH1 0x1 PUSH1 0x1 PUSH1 0xA0 SHL SUB DUP9 AND PUSH1 0x40 DUP6 ADD MSTORE DUP4 DUP2 SUB PUSH1 0x60 DUP6 ADD MSTORE SWAP1 POP PUSH2 0x1E56 DUP2 DUP8 PUSH2 0x1BD1 JUMP JUMPDEST SWAP1 POP DUP5 PUSH1 0x80 DUP5 ADD MSTORE DUP3 DUP2 SUB PUSH1 0xA0 DUP5 ADD MSTORE PUSH2 0x1E70 DUP2 DUP6 PUSH2 0x1BD1 JUMP JUMPDEST SWAP10 SWAP9 POP POP POP POP POP POP POP POP POP JUMP JUMPDEST PUSH1 0x20 DUP1 DUP3 MSTORE DUP2 DUP2 ADD MSTORE PUSH32 0x416C726561647920436F6E6E656374656420746F207468697320757365722021 PUSH1 0x40 DUP3 ADD MSTORE PUSH1 0x60 ADD SWAP1 JUMP JUMPDEST PUSH1 0x20 DUP1 DUP3 MSTORE PUSH1 0x23 SWAP1 DUP3 ADD MSTORE PUSH32 0x596F752063616E6E6F742073656E64207265717565737420746F20796F757273 PUSH1 0x40 DUP3 ADD MSTORE PUSH3 0x32B633 PUSH1 0xE9 SHL PUSH1 0x60 DUP3 ADD MSTORE PUSH1 0x80 ADD SWAP1 JUMP JUMPDEST PUSH1 0x20 DUP1 DUP3 MSTORE PUSH1 0x1E SWAP1 DUP3 ADD MSTORE PUSH32 0x436F6E6E656374696F6E2072657175657374206E6F7420666F756E6420210000 PUSH1 0x40 DUP3 ADD MSTORE PUSH1 0x60 ADD SWAP1 JUMP JUMPDEST PUSH1 0x20 DUP1 DUP3 MSTORE PUSH1 0x15 SWAP1 DUP3 ADD MSTORE PUSH21 0x5265717565737420616C72656164792073656E7421 PUSH1 0x58 SHL PUSH1 0x40 DUP3 ADD MSTORE PUSH1 0x60 ADD SWAP1 JUMP JUMPDEST PUSH1 0x0 PUSH1 0x20 DUP3 MSTORE PUSH2 0x1AA6 PUSH1 0x20 DUP4 ADD DUP5 PUSH2 0x1C1C JUMP JUMPDEST SWAP1 DUP2 MSTORE PUSH1 0x20 ADD SWAP1 JUMP JUMPDEST PUSH1 0x2 DUP2 DIV PUSH1 0x1 DUP3 AND DUP1 PUSH2 0x1F8B JUMPI PUSH1 0x7F DUP3 AND SWAP2 POP JUMPDEST PUSH1 0x20 DUP3 LT DUP2 EQ ISZERO PUSH2 0x1FAC JUMPI PUSH4 0x4E487B71 PUSH1 0xE0 SHL PUSH1 0x0 MSTORE PUSH1 0x22 PUSH1 0x4 MSTORE PUSH1 0x24 PUSH1 0x0 REVERT JUMPDEST POP SWAP2 SWAP1 POP JUMP JUMPDEST PUSH1 0x0 PUSH1 0x0 NOT DUP3 EQ ISZERO PUSH2 0x1FD2 JUMPI PUSH4 0x4E487B71 PUSH1 0xE0 SHL DUP2 MSTORE PUSH1 0x11 PUSH1 0x4 MSTORE PUSH1 0x24 DUP2 REVERT JUMPDEST POP PUSH1 0x1 ADD SWAP1 JUMP JUMPDEST PUSH4 0x4E487B71 PUSH1 0xE0 SHL PUSH1 0x0 MSTORE PUSH1 0x41 PUSH1 0x4 MSTORE PUSH1 0x24 PUSH1 0x0 REVERT INVALID LOG2 PUSH5 0x6970667358 0x22 SLT KECCAK256 0x1E PUSH1 0x86 0xA8 PUSH22 0x110814915362646CC8B6B1C43C3C4988439EFD3B5E14 0xB1 0xB4 0xB7 BALANCE PUSH12 0x64736F6C6343000800003300 "},"methodIdentifiers":{"acceptRequest(address)":"2b8cc346","allUsers(address)":"edbece37","approved_connected_users(address,uint256)":"368ca880","connections(address,uint256)":"7a65b551","createUser(string,string,string,string)":"6f7fcddb","entryNumber()":"6a146666","getAllUsers()":"e2842d79","getConnectedUsers(address)":"cc2b8964","getPendingRequests(address)":"f05bfa7b","getProfilePicture(address)":"6f51d8cf","get_Dp_Of_All_Users()":"c672a1aa","pending_requests(address,uint256)":"90b0a4ca","sendRequest(address)":"85e1b15b","uploadProfilePicture(string)":"b173c541","userArray(uint256)":"41209af1","userDashBoard(address)":"bc349e73","userDpArray(uint256)":"b4b3307b","userProfilePicture(address)":"29583a9e"}}}}}