{
  "_format": "hh-sol-artifact-1",
  "contractName": "LinkedIn",
  "sourceName": "contracts/LinkedIn.sol",
  "abi": [
    {
      "inputs": [],
      "stateMutability": "nonpayable",
      "type": "constructor"
    },
    {
      "anonymous": false,
      "inputs": [
        {
          "indexed": false,
          "internalType": "address",
          "name": "sender",
          "type": "address"
        },
        {
          "indexed": false,
          "internalType": "address",
          "name": "receiver",
          "type": "address"
        }
      ],
      "name": "RequestAccepted",
      "type": "event"
    },
    {
      "anonymous": false,
      "inputs": [
        {
          "indexed": false,
          "internalType": "address",
          "name": "sender",
          "type": "address"
        },
        {
          "indexed": false,
          "internalType": "address",
          "name": "receiver",
          "type": "address"
        }
      ],
      "name": "RequestSent",
      "type": "event"
    },
    {
      "inputs": [
        {
          "internalType": "address",
          "name": "_sender",
          "type": "address"
        }
      ],
      "name": "acceptRequest",
      "outputs": [],
      "stateMutability": "nonpayable",
      "type": "function"
    },
    {
      "inputs": [
        {
          "internalType": "address",
          "name": "",
          "type": "address"
        }
      ],
      "name": "allUsers",
      "outputs": [
        {
          "internalType": "string",
          "name": "userCID",
          "type": "string"
        },
        {
          "internalType": "string",
          "name": "userName",
          "type": "string"
        },
        {
          "internalType": "address",
          "name": "userID",
          "type": "address"
        },
        {
          "internalType": "string",
          "name": "profession",
          "type": "string"
        },
        {
          "internalType": "uint256",
          "name": "userNum",
          "type": "uint256"
        },
        {
          "internalType": "string",
          "name": "country",
          "type": "string"
        }
      ],
      "stateMutability": "view",
      "type": "function"
    },
    {
      "inputs": [
        {
          "internalType": "address",
          "name": "",
          "type": "address"
        },
        {
          "internalType": "uint256",
          "name": "",
          "type": "uint256"
        }
      ],
      "name": "approved_connected_users",
      "outputs": [
        {
          "internalType": "string",
          "name": "userCID",
          "type": "string"
        },
        {
          "internalType": "string",
          "name": "userName",
          "type": "string"
        },
        {
          "internalType": "address",
          "name": "userID",
          "type": "address"
        },
        {
          "internalType": "string",
          "name": "profession",
          "type": "string"
        },
        {
          "internalType": "uint256",
          "name": "userNum",
          "type": "uint256"
        },
        {
          "internalType": "string",
          "name": "country",
          "type": "string"
        }
      ],
      "stateMutability": "view",
      "type": "function"
    },
    {
      "inputs": [
        {
          "internalType": "address",
          "name": "",
          "type": "address"
        },
        {
          "internalType": "uint256",
          "name": "",
          "type": "uint256"
        }
      ],
      "name": "connections",
      "outputs": [
        {
          "internalType": "address",
          "name": "sender",
          "type": "address"
        },
        {
          "internalType": "address",
          "name": "receiver",
          "type": "address"
        },
        {
          "internalType": "bool",
          "name": "connected",
          "type": "bool"
        }
      ],
      "stateMutability": "view",
      "type": "function"
    },
    {
      "inputs": [
        {
          "internalType": "string",
          "name": "_userCID",
          "type": "string"
        },
        {
          "internalType": "string",
          "name": "_userName",
          "type": "string"
        },
        {
          "internalType": "string",
          "name": "_profession",
          "type": "string"
        },
        {
          "internalType": "string",
          "name": "_country",
          "type": "string"
        }
      ],
      "name": "createUser",
      "outputs": [],
      "stateMutability": "nonpayable",
      "type": "function"
    },
    {
      "inputs": [],
      "name": "entryNumber",
      "outputs": [
        {
          "internalType": "uint256",
          "name": "_value",
          "type": "uint256"
        }
      ],
      "stateMutability": "view",
      "type": "function"
    },
    {
      "inputs": [],
      "name": "getAllUsers",
      "outputs": [
        {
          "internalType": "string[]",
          "name": "",
          "type": "string[]"
        }
      ],
      "stateMutability": "view",
      "type": "function"
    },
    {
      "inputs": [
        {
          "internalType": "address",
          "name": "_userID",
          "type": "address"
        }
      ],
      "name": "getConnectedUsers",
      "outputs": [
        {
          "components": [
            {
              "internalType": "string",
              "name": "userCID",
              "type": "string"
            },
            {
              "internalType": "string",
              "name": "userName",
              "type": "string"
            },
            {
              "internalType": "address",
              "name": "userID",
              "type": "address"
            },
            {
              "internalType": "string",
              "name": "profession",
              "type": "string"
            },
            {
              "internalType": "uint256",
              "name": "userNum",
              "type": "uint256"
            },
            {
              "internalType": "string",
              "name": "country",
              "type": "string"
            }
          ],
          "internalType": "struct LinkedIn.userData[]",
          "name": "",
          "type": "tuple[]"
        }
      ],
      "stateMutability": "view",
      "type": "function"
    },
    {
      "inputs": [
        {
          "internalType": "address",
          "name": "_userID",
          "type": "address"
        }
      ],
      "name": "getPendingRequests",
      "outputs": [
        {
          "components": [
            {
              "internalType": "address",
              "name": "sender",
              "type": "address"
            },
            {
              "internalType": "address",
              "name": "receiver",
              "type": "address"
            },
            {
              "internalType": "bool",
              "name": "connected",
              "type": "bool"
            }
          ],
          "internalType": "struct LinkedIn.userConnections[]",
          "name": "",
          "type": "tuple[]"
        }
      ],
      "stateMutability": "view",
      "type": "function"
    },
    {
      "inputs": [
        {
          "internalType": "address",
          "name": "_userID",
          "type": "address"
        }
      ],
      "name": "getProfilePicture",
      "outputs": [
        {
          "internalType": "string",
          "name": "",
          "type": "string"
        }
      ],
      "stateMutability": "view",
      "type": "function"
    },
    {
      "inputs": [],
      "name": "get_Dp_Of_All_Users",
      "outputs": [
        {
          "internalType": "string[]",
          "name": "",
          "type": "string[]"
        }
      ],
      "stateMutability": "view",
      "type": "function"
    },
    {
      "inputs": [
        {
          "internalType": "address",
          "name": "",
          "type": "address"
        },
        {
          "internalType": "uint256",
          "name": "",
          "type": "uint256"
        }
      ],
      "name": "pending_requests",
      "outputs": [
        {
          "internalType": "address",
          "name": "sender",
          "type": "address"
        },
        {
          "internalType": "address",
          "name": "receiver",
          "type": "address"
        },
        {
          "internalType": "bool",
          "name": "connected",
          "type": "bool"
        }
      ],
      "stateMutability": "view",
      "type": "function"
    },
    {
      "inputs": [
        {
          "internalType": "address",
          "name": "_receiver",
          "type": "address"
        }
      ],
      "name": "sendRequest",
      "outputs": [],
      "stateMutability": "nonpayable",
      "type": "function"
    },
    {
      "inputs": [
        {
          "internalType": "string",
          "name": "_newPicCid",
          "type": "string"
        }
      ],
      "name": "uploadProfilePicture",
      "outputs": [],
      "stateMutability": "nonpayable",
      "type": "function"
    },
    {
      "inputs": [
        {
          "internalType": "uint256",
          "name": "",
          "type": "uint256"
        }
      ],
      "name": "userArray",
      "outputs": [
        {
          "internalType": "string",
          "name": "",
          "type": "string"
        }
      ],
      "stateMutability": "view",
      "type": "function"
    },
    {
      "inputs": [
        {
          "internalType": "address",
          "name": "_userID",
          "type": "address"
        }
      ],
      "name": "userDashBoard",
      "outputs": [
        {
          "components": [
            {
              "internalType": "string",
              "name": "userCID",
              "type": "string"
            },
            {
              "internalType": "string",
              "name": "userName",
              "type": "string"
            },
            {
              "internalType": "address",
              "name": "userID",
              "type": "address"
            },
            {
              "internalType": "string",
              "name": "profession",
              "type": "string"
            },
            {
              "internalType": "uint256",
              "name": "userNum",
              "type": "uint256"
            },
            {
              "internalType": "string",
              "name": "country",
              "type": "string"
            }
          ],
          "internalType": "struct LinkedIn.userData",
          "name": "",
          "type": "tuple"
        }
      ],
      "stateMutability": "view",
      "type": "function"
    },
    {
      "inputs": [
        {
          "internalType": "uint256",
          "name": "",
          "type": "uint256"
        }
      ],
      "name": "userDpArray",
      "outputs": [
        {
          "internalType": "string",
          "name": "",
          "type": "string"
        }
      ],
      "stateMutability": "view",
      "type": "function"
    },
    {
      "inputs": [
        {
          "internalType": "address",
          "name": "",
          "type": "address"
        }
      ],
      "name": "userProfilePicture",
      "outputs": [
        {
          "internalType": "string",
          "name": "pictureCID",
          "type": "string"
        }
      ],
      "stateMutability": "view",
      "type": "function"
    }
  ],
  "bytecode": "0x608060405234801561001057600080fd5b50600180546001600160a01b03191633179055612025806100326000396000f3fe608060405234801561001057600080fd5b50600436106101165760003560e01c806390b0a4ca116100a2578063c672a1aa11610071578063c672a1aa1461025a578063cc2b89641461026f578063e2842d791461028f578063edbece3714610297578063f05bfa7b146102aa57610116565b806390b0a4ca14610201578063b173c54114610214578063b4b3307b14610227578063bc349e731461023a57610116565b80636a146666116100e95780636a146666146101915780636f51d8cf146101a65780636f7fcddb146101b95780637a65b551146101cc57806385e1b15b146101ee57610116565b806329583a9e1461011b5780632b8cc34614610144578063368ca8801461015957806341209af11461017e575b600080fd5b61012e610129366004611a8c565b6102ca565b60405161013b9190611dfb565b60405180910390f35b610157610152366004611a8c565b610368565b005b61016c610167366004611aad565b610893565b60405161013b96959493929190611e0e565b61012e61018c366004611bb9565b610b1b565b610199610bc7565b60405161013b9190611f6e565b61012e6101b4366004611a8c565b610bcd565b6101576101c7366004611b11565b610c7a565b6101df6101da366004611aad565b610dbe565b60405161013b93929190611cbd565b6101576101fc366004611a8c565b610e11565b6101df61020f366004611aad565b611017565b610157610222366004611ad6565b611033565b61012e610235366004611bb9565b6110b0565b61024d610248366004611a8c565b6110c0565b60405161013b9190611f5b565b61026261135a565b60405161013b9190611ce1565b61028261027d366004611a8c565b611433565b60405161013b9190611da8565b610262611711565b61016c6102a5366004611a8c565b6117e1565b6102bd6102b8366004611a8c565b6117fc565b60405161013b9190611d41565b6008602052600090815260409020805481906102e590611f77565b80601f016020809104026020016040519081016040528092919081815260200182805461031190611f77565b801561035e5780601f106103335761010080835404028352916020019161035e565b820191906000526020600020905b81548152906001019060200180831161034157829003601f168201915b5050505050905081565b6000806000805b6001600160a01b038516600090815260056020526040902054811015610472576001600160a01b03851660009081526005602052604090208054339190839081106103ca57634e487b7160e01b600052603260045260246000fd5b60009182526020909120600160029092020101546001600160a01b03161415610460576001600160a01b038516600090815260056020526040902080546001955091925082918290811061042e57634e487b7160e01b600052603260045260246000fd5b60009182526020909120600160029092020181015460ff600160a01b909104161515141561045b57600192505b610472565b8061046a81611fb2565b91505061036f565b5060018315151461049e5760405162461bcd60e51b815260040161049590611ef5565b60405180910390fd5b81156104bc5760405162461bcd60e51b815260040161049590611e7d565b33600081815260056020818152604080842081516060810183526001600160a01b038b8116808352828601988952600183860181815285548083018755958a52878a209451600290960290940180549584166001600160a01b03199687161781559951998101805494511515600160a01b0260ff60a01b199b90941694909516939093179890981617909155948452919052902080548390811061057057634e487b7160e01b600052603260045260246000fd5b906000526020600020906002020160010160146101000a81548160ff02191690831515021790555060005b3360009081526007602052604090205481101561067f5733600090815260076020526040902080546001600160a01b0387169190839081106105ed57634e487b7160e01b600052603260045260246000fd5b60009182526020909120600290910201546001600160a01b0316141561066d573360009081526007602052604090208054600191908390811061064057634e487b7160e01b600052603260045260246000fd5b906000526020600020906002020160010160146101000a81548160ff02191690831515021790555061067f565b8061067781611fb2565b91505061059b565b503360009081526006602081815260408084206001600160a01b0389168552600483529084208154600181018355918552919093208154919390920290910190819083906106cc90611f77565b6106d79291906118a1565b5060018201816001019080546106ec90611f77565b6106f79291906118a1565b5060028281015490820180546001600160a01b0319166001600160a01b03909216919091179055600380830180549183019161073290611f77565b61073d9291906118a1565b5060048201548160040155600582018160050190805461075c90611f77565b6107679291906118a1565b5050506001600160a01b0384166000908152600660208181526040808420338552600483529084208154600181018355918552919093208154919390920290910190819083906107b690611f77565b6107c19291906118a1565b5060018201816001019080546107d690611f77565b6107e19291906118a1565b5060028281015490820180546001600160a01b0319166001600160a01b03909216919091179055600380830180549183019161081c90611f77565b6108279291906118a1565b5060048201548160040155600582018160050190805461084690611f77565b6108519291906118a1565b5050507f5e467e966ef1f3971f88e8cdbfaa4e6af166f9454cf57a51a4a7f9abaaccbb5d8433604051610885929190611ca3565b60405180910390a150505050565b600660205281600052604060002081815481106108af57600080fd5b9060005260206000209060060201600091509150508060000180546108d390611f77565b80601f01602080910402602001604051908101604052809291908181526020018280546108ff90611f77565b801561094c5780601f106109215761010080835404028352916020019161094c565b820191906000526020600020905b81548152906001019060200180831161092f57829003601f168201915b50505050509080600101805461096190611f77565b80601f016020809104026020016040519081016040528092919081815260200182805461098d90611f77565b80156109da5780601f106109af576101008083540402835291602001916109da565b820191906000526020600020905b8154815290600101906020018083116109bd57829003601f168201915b505050600284015460038501805494956001600160a01b03909216949193509150610a0490611f77565b80601f0160208091040260200160405190810160405280929190818152602001828054610a3090611f77565b8015610a7d5780601f10610a5257610100808354040283529160200191610a7d565b820191906000526020600020905b815481529060010190602001808311610a6057829003601f168201915b505050505090806004015490806005018054610a9890611f77565b80601f0160208091040260200160405190810160405280929190818152602001828054610ac490611f77565b8015610b115780601f10610ae657610100808354040283529160200191610b11565b820191906000526020600020905b815481529060010190602001808311610af457829003601f168201915b5050505050905086565b60028181548110610b2b57600080fd5b906000526020600020016000915090508054610b4690611f77565b80601f0160208091040260200160405190810160405280929190818152602001828054610b7290611f77565b8015610bbf5780601f10610b9457610100808354040283529160200191610bbf565b820191906000526020600020905b815481529060010190602001808311610ba257829003601f168201915b505050505081565b60005481565b6001600160a01b0381166000908152600860205260409020805460609190610bf490611f77565b80601f0160208091040260200160405190810160405280929190818152602001828054610c2090611f77565b8015610c6d5780601f10610c4257610100808354040283529160200191610c6d565b820191906000526020600020905b815481529060010190602001808311610c5057829003601f168201915b505050505090505b919050565b610c846000611894565b60006040518060c00160405280868152602001858152602001336001600160a01b03168152602001848152602001610cbc600061189d565b81526020908101849052600280546001810182556000919091528751929350610d0c927f405787fa12a823e0f2b7631cc41b3ba8828b3321ca811111fa75cd3aa3bb5ace9091019188019061192c565b50336000908152600460209081526040909120825180518493610d3392849291019061192c565b506020828101518051610d4c926001850192019061192c565b5060408201516002820180546001600160a01b0319166001600160a01b0390921691909117905560608201518051610d8e91600384019160209091019061192c565b506080820151600482015560a08201518051610db491600584019160209091019061192c565b5050505050505050565b60056020528160005260406000208181548110610dda57600080fd5b6000918252602090912060029091020180546001909101546001600160a01b0391821693509081169150600160a01b900460ff1683565b336001600160a01b0382161415610e3a5760405162461bcd60e51b815260040161049590611eb2565b6000805b33600090815260056020526040902054811015610ece5733600090815260056020526040902080546001600160a01b038516919083908110610e9057634e487b7160e01b600052603260045260246000fd5b60009182526020909120600160029092020101546001600160a01b03161415610ebc5760019150610ece565b80610ec681611fb2565b915050610e3e565b508015610eed5760405162461bcd60e51b815260040161049590611f2c565b3360008181526005602090815260408083208151606080820184528682526001600160a01b03898116838701818152848701898152865460018181018955978b52898b209651600291820290970180549786166001600160a01b03199889161781559251928801805492511515600160a01b90810260ff60a01b19958816948a16949094178516939093179055838b5260078a52888b2089519687018a528c8752868b01948552868a018c81528154808b018355918d529a909b2095519a0290940180549984169986169990991789559051979094018054965115159092029616949091169390931716929092179055517f8e80944630a2faa57965ab9ebd299ad0b033ff10bf238eefa5531254f86a88e59161100b918590611ca3565b60405180910390a15050565b60076020528160005260406000208181548110610dda57600080fd5b604080516020808201835283825233600090815260088252929092208151805192939192611064928492019061192c565b50506003805460018101825560009190915282516110ac92507fc2575a0e9e593c00f959f8c92f12db2869c3395a3b0502d05e2516446f71f85b90910190602084019061192c565b5050565b60038181548110610b2b57600080fd5b6110c86119a0565b6001600160a01b03821660009081526004602052604090819020815160c081019092528054829082906110fa90611f77565b80601f016020809104026020016040519081016040528092919081815260200182805461112690611f77565b80156111735780601f1061114857610100808354040283529160200191611173565b820191906000526020600020905b81548152906001019060200180831161115657829003601f168201915b5050505050815260200160018201805461118c90611f77565b80601f01602080910402602001604051908101604052809291908181526020018280546111b890611f77565b80156112055780601f106111da57610100808354040283529160200191611205565b820191906000526020600020905b8154815290600101906020018083116111e857829003601f168201915b505050918352505060028201546001600160a01b0316602082015260038201805460409092019161123590611f77565b80601f016020809104026020016040519081016040528092919081815260200182805461126190611f77565b80156112ae5780601f10611283576101008083540402835291602001916112ae565b820191906000526020600020905b81548152906001019060200180831161129157829003601f168201915b50505050508152602001600482015481526020016005820180546112d190611f77565b80601f01602080910402602001604051908101604052809291908181526020018280546112fd90611f77565b801561134a5780601f1061131f5761010080835404028352916020019161134a565b820191906000526020600020905b81548152906001019060200180831161132d57829003601f168201915b5050505050815250509050919050565b60606003805480602002602001604051908101604052809291908181526020016000905b8282101561142a57838290600052602060002001805461139d90611f77565b80601f01602080910402602001604051908101604052809291908181526020018280546113c990611f77565b80156114165780601f106113eb57610100808354040283529160200191611416565b820191906000526020600020905b8154815290600101906020018083116113f957829003601f168201915b50505050508152602001906001019061137e565b50505050905090565b6001600160a01b0381166000908152600660209081526040808320805482518185028101850190935280835260609492939192909184015b8282101561170657838290600052602060002090600602016040518060c001604052908160008201805461149e90611f77565b80601f01602080910402602001604051908101604052809291908181526020018280546114ca90611f77565b80156115175780601f106114ec57610100808354040283529160200191611517565b820191906000526020600020905b8154815290600101906020018083116114fa57829003601f168201915b5050505050815260200160018201805461153090611f77565b80601f016020809104026020016040519081016040528092919081815260200182805461155c90611f77565b80156115a95780601f1061157e576101008083540402835291602001916115a9565b820191906000526020600020905b81548152906001019060200180831161158c57829003601f168201915b505050918352505060028201546001600160a01b031660208201526003820180546040909201916115d990611f77565b80601f016020809104026020016040519081016040528092919081815260200182805461160590611f77565b80156116525780601f1061162757610100808354040283529160200191611652565b820191906000526020600020905b81548152906001019060200180831161163557829003601f168201915b505050505081526020016004820154815260200160058201805461167590611f77565b80601f01602080910402602001604051908101604052809291908181526020018280546116a190611f77565b80156116ee5780601f106116c3576101008083540402835291602001916116ee565b820191906000526020600020905b8154815290600101906020018083116116d157829003601f168201915b5050505050815250508152602001906001019061146b565b505050509050919050565b60606002805480602002602001604051908101604052809291908181526020016000905b8282101561142a57838290600052602060002001805461175490611f77565b80601f016020809104026020016040519081016040528092919081815260200182805461178090611f77565b80156117cd5780601f106117a2576101008083540402835291602001916117cd565b820191906000526020600020905b8154815290600101906020018083116117b057829003601f168201915b505050505081526020019060010190611735565b6004602052600090815260409020805481906108d390611f77565b6001600160a01b0381166000908152600760209081526040808320805482518185028101850190935280835260609492939192909184015b82821015611706576000848152602090819020604080516060810182526002860290920180546001600160a01b03908116845260019182015490811684860152600160a01b900460ff161515918301919091529083529092019101611834565b80546001019055565b5490565b8280546118ad90611f77565b90600052602060002090601f0160209004810192826118cf576000855561191c565b82601f106118e0578054855561191c565b8280016001018555821561191c57600052602060002091601f016020900482015b8281111561191c578254825591600101919060010190611901565b506119289291506119df565b5090565b82805461193890611f77565b90600052602060002090601f01602090048101928261195a576000855561191c565b82601f1061197357805160ff191683800117855561191c565b8280016001018555821561191c579182015b8281111561191c578251825591602001919060010190611985565b6040518060c00160405280606081526020016060815260200160006001600160a01b031681526020016060815260200160008152602001606081525090565b5b8082111561192857600081556001016119e0565b80356001600160a01b0381168114610c7557600080fd5b600082601f830112611a1b578081fd5b813567ffffffffffffffff80821115611a3657611a36611fd9565b604051601f8301601f191681016020018281118282101715611a5a57611a5a611fd9565b604052828152848301602001861015611a71578384fd5b82602086016020830137918201602001929092529392505050565b600060208284031215611a9d578081fd5b611aa6826119f4565b9392505050565b60008060408385031215611abf578081fd5b611ac8836119f4565b946020939093013593505050565b600060208284031215611ae7578081fd5b813567ffffffffffffffff811115611afd578182fd5b611b0984828501611a0b565b949350505050565b60008060008060808587031215611b26578182fd5b843567ffffffffffffffff80821115611b3d578384fd5b611b4988838901611a0b565b95506020870135915080821115611b5e578384fd5b611b6a88838901611a0b565b94506040870135915080821115611b7f578384fd5b611b8b88838901611a0b565b93506060870135915080821115611ba0578283fd5b50611bad87828801611a0b565b91505092959194509250565b600060208284031215611bca578081fd5b5035919050565b60008151808452815b81811015611bf657602081850181015186830182015201611bda565b81811115611c075782602083870101525b50601f01601f19169290920160200192915050565b6000815160c08452611c3160c0850182611bd1565b905060208301518482036020860152611c4a8282611bd1565b91505060018060a01b03604084015116604085015260608301518482036060860152611c768282611bd1565b9150506080830151608085015260a083015184820360a0860152611c9a8282611bd1565b95945050505050565b6001600160a01b0392831681529116602082015260400190565b6001600160a01b039384168152919092166020820152901515604082015260600190565b6000602080830181845280855180835260408601915060408482028701019250838701855b82811015611d3457603f19888603018452611d22858351611bd1565b94509285019290850190600101611d06565b5092979650505050505050565b602080825282518282018190526000919060409081850190868401855b82811015611d9b57815180516001600160a01b03908116865287820151168786015285015115158585015260609093019290850190600101611d5e565b5091979650505050505050565b6000602080830181845280855180835260408601915060408482028701019250838701855b82811015611d3457603f19888603018452611de9858351611c1c565b94509285019290850190600101611dcd565b600060208252611aa66020830184611bd1565b600060c08252611e2160c0830189611bd1565b8281036020840152611e338189611bd1565b6001600160a01b038816604085015283810360608501529050611e568187611bd1565b905084608084015282810360a0840152611e708185611bd1565b9998505050505050505050565b6020808252818101527f416c726561647920436f6e6e656374656420746f207468697320757365722021604082015260600190565b60208082526023908201527f596f752063616e6e6f742073656e64207265717565737420746f20796f75727360408201526232b63360e91b606082015260800190565b6020808252601e908201527f436f6e6e656374696f6e2072657175657374206e6f7420666f756e6420210000604082015260600190565b6020808252601590820152745265717565737420616c72656164792073656e742160581b604082015260600190565b600060208252611aa66020830184611c1c565b90815260200190565b600281046001821680611f8b57607f821691505b60208210811415611fac57634e487b7160e01b600052602260045260246000fd5b50919050565b6000600019821415611fd257634e487b7160e01b81526011600452602481fd5b5060010190565b634e487b7160e01b600052604160045260246000fdfea26469706673582212201e6086a875110814915362646cc8b6b1c43c3c4988439efd3b5e14b1b4b7316b64736f6c63430008000033",
  "linkReferences": {},
  "deployedLinkReferences": {}
}